{
  "contractName": "Voting",
  "abi": [
    {
      "anonymous": false,
      "inputs": [
        {
          "indexed": true,
          "internalType": "address",
          "name": "previousOwner",
          "type": "address"
        },
        {
          "indexed": true,
          "internalType": "address",
          "name": "newOwner",
          "type": "address"
        }
      ],
      "name": "OwnershipTransferred",
      "type": "event"
    },
    {
      "anonymous": false,
      "inputs": [
        {
          "indexed": false,
          "internalType": "uint256",
          "name": "proposalId",
          "type": "uint256"
        }
      ],
      "name": "ProposalRegistered",
      "type": "event"
    },
    {
      "anonymous": false,
      "inputs": [
        {
          "indexed": false,
          "internalType": "address",
          "name": "voter",
          "type": "address"
        },
        {
          "indexed": false,
          "internalType": "uint256",
          "name": "proposalId",
          "type": "uint256"
        }
      ],
      "name": "Voted",
      "type": "event"
    },
    {
      "anonymous": false,
      "inputs": [
        {
          "indexed": false,
          "internalType": "address",
          "name": "voterAddress",
          "type": "address"
        }
      ],
      "name": "VoterRegistered",
      "type": "event"
    },
    {
      "anonymous": false,
      "inputs": [
        {
          "indexed": false,
          "internalType": "enum Voting.WorkflowStatus",
          "name": "previousStatus",
          "type": "uint8"
        },
        {
          "indexed": false,
          "internalType": "enum Voting.WorkflowStatus",
          "name": "newStatus",
          "type": "uint8"
        }
      ],
      "name": "WorkflowStatusChange",
      "type": "event"
    },
    {
      "inputs": [
        {
          "internalType": "uint256",
          "name": "",
          "type": "uint256"
        }
      ],
      "name": "addressUsed",
      "outputs": [
        {
          "internalType": "address",
          "name": "",
          "type": "address"
        }
      ],
      "stateMutability": "view",
      "type": "function",
      "constant": true
    },
    {
      "inputs": [],
      "name": "nbVote",
      "outputs": [
        {
          "internalType": "uint256",
          "name": "",
          "type": "uint256"
        }
      ],
      "stateMutability": "view",
      "type": "function",
      "constant": true
    },
    {
      "inputs": [],
      "name": "owner",
      "outputs": [
        {
          "internalType": "address",
          "name": "",
          "type": "address"
        }
      ],
      "stateMutability": "view",
      "type": "function",
      "constant": true
    },
    {
      "inputs": [
        {
          "internalType": "uint256",
          "name": "",
          "type": "uint256"
        }
      ],
      "name": "proposals",
      "outputs": [
        {
          "internalType": "string",
          "name": "description",
          "type": "string"
        },
        {
          "internalType": "uint256",
          "name": "voteCount",
          "type": "uint256"
        }
      ],
      "stateMutability": "view",
      "type": "function",
      "constant": true
    },
    {
      "inputs": [],
      "name": "renounceOwnership",
      "outputs": [],
      "stateMutability": "nonpayable",
      "type": "function"
    },
    {
      "inputs": [],
      "name": "totalVoter",
      "outputs": [
        {
          "internalType": "uint256",
          "name": "",
          "type": "uint256"
        }
      ],
      "stateMutability": "view",
      "type": "function",
      "constant": true
    },
    {
      "inputs": [
        {
          "internalType": "address",
          "name": "newOwner",
          "type": "address"
        }
      ],
      "name": "transferOwnership",
      "outputs": [],
      "stateMutability": "nonpayable",
      "type": "function"
    },
    {
      "inputs": [],
      "name": "wfStatus",
      "outputs": [
        {
          "internalType": "enum Voting.WorkflowStatus",
          "name": "",
          "type": "uint8"
        }
      ],
      "stateMutability": "view",
      "type": "function",
      "constant": true
    },
    {
      "inputs": [],
      "name": "winningProposalId",
      "outputs": [
        {
          "internalType": "uint256",
          "name": "",
          "type": "uint256"
        }
      ],
      "stateMutability": "view",
      "type": "function",
      "constant": true
    },
    {
      "inputs": [],
      "name": "nextStage",
      "outputs": [],
      "stateMutability": "nonpayable",
      "type": "function"
    },
    {
      "inputs": [],
      "name": "getWhitelist",
      "outputs": [
        {
          "internalType": "address[]",
          "name": "",
          "type": "address[]"
        }
      ],
      "stateMutability": "view",
      "type": "function",
      "constant": true
    },
    {
      "inputs": [],
      "name": "getProposalsList",
      "outputs": [
        {
          "components": [
            {
              "internalType": "string",
              "name": "description",
              "type": "string"
            },
            {
              "internalType": "uint256",
              "name": "voteCount",
              "type": "uint256"
            }
          ],
          "internalType": "struct Voting.Proposal[]",
          "name": "",
          "type": "tuple[]"
        }
      ],
      "stateMutability": "view",
      "type": "function",
      "constant": true
    },
    {
      "inputs": [],
      "name": "getTotalVoter",
      "outputs": [
        {
          "internalType": "uint256",
          "name": "",
          "type": "uint256"
        }
      ],
      "stateMutability": "view",
      "type": "function",
      "constant": true
    },
    {
      "inputs": [
        {
          "internalType": "address",
          "name": "_address",
          "type": "address"
        }
      ],
      "name": "registeringUniqueAd",
      "outputs": [],
      "stateMutability": "nonpayable",
      "type": "function"
    },
    {
      "inputs": [
        {
          "internalType": "address[]",
          "name": "arrayWL",
          "type": "address[]"
        }
      ],
      "name": "registeringWL",
      "outputs": [],
      "stateMutability": "nonpayable",
      "type": "function"
    },
    {
      "inputs": [],
      "name": "startingProposalSession",
      "outputs": [],
      "stateMutability": "nonpayable",
      "type": "function"
    },
    {
      "inputs": [
        {
          "internalType": "string",
          "name": "_description",
          "type": "string"
        }
      ],
      "name": "registeringProposal",
      "outputs": [],
      "stateMutability": "nonpayable",
      "type": "function"
    },
    {
      "inputs": [],
      "name": "endingProposalSession",
      "outputs": [],
      "stateMutability": "nonpayable",
      "type": "function"
    },
    {
      "inputs": [],
      "name": "startVotingSession",
      "outputs": [],
      "stateMutability": "nonpayable",
      "type": "function"
    },
    {
      "inputs": [
        {
          "internalType": "uint256",
          "name": "_proposalId",
          "type": "uint256"
        }
      ],
      "name": "votingFor",
      "outputs": [],
      "stateMutability": "nonpayable",
      "type": "function"
    },
    {
      "inputs": [],
      "name": "endVotingSession",
      "outputs": [],
      "stateMutability": "nonpayable",
      "type": "function"
    },
    {
      "inputs": [],
      "name": "countVote",
      "outputs": [],
      "stateMutability": "nonpayable",
      "type": "function"
    },
    {
      "inputs": [],
      "name": "getWinner",
      "outputs": [
        {
          "internalType": "uint256",
          "name": "",
          "type": "uint256"
        },
        {
          "internalType": "string",
          "name": "",
          "type": "string"
        },
        {
          "internalType": "uint256",
          "name": "",
          "type": "uint256"
        }
      ],
      "stateMutability": "view",
      "type": "function",
      "constant": true
    },
    {
      "inputs": [],
      "name": "reInitStatus",
      "outputs": [],
      "stateMutability": "nonpayable",
      "type": "function"
    }
  ],
  "bytecode": "0x608060405260008060146101000a81548160ff021916908360058111156200002c576200002b6200013b565b5b0217905550600060055560006006553480156200004857600080fd5b50620000696200005d6200006f60201b60201c565b6200007760201b60201c565b6200016a565b600033905090565b60008060009054906101000a900473ffffffffffffffffffffffffffffffffffffffff169050816000806101000a81548173ffffffffffffffffffffffffffffffffffffffff021916908373ffffffffffffffffffffffffffffffffffffffff1602179055508173ffffffffffffffffffffffffffffffffffffffff168173ffffffffffffffffffffffffffffffffffffffff167f8be0079c531659141344cd1fd0a4f28419497f9722a3daafe3b4186f6b6457e060405160405180910390a35050565b7f4e487b7100000000000000000000000000000000000000000000000000000000600052602160045260246000fd5b612eee806200017a6000396000f3fe608060405234801561001057600080fd5b50600436106101585760003560e01c80638da5cb5b116100c3578063d01f63f51161007c578063d01f63f514610322578063e817834814610340578063ee3743ab1461035c578063ee74c67814610366578063eea24be014610370578063f2fde38b1461038e57610158565b80638da5cb5b146102965780638e7ea5b2146102b457806390b8a0d5146102d4578063a3d22a56146102de578063a7bfab16146102fa578063c64963c51461030457610158565b80634f621816116101155780634f621816146101f8578063578178c0146102025780635d738fb7146102205780636332abc914610250578063715018a61461026e57806372f24fc11461027857610158565b8063013cf08b1461015d57806304cc2ed61461018e5780630b93400e146101985780631a6cd2fd146101b657806326e3233d146101c05780632736f7e8146101dc575b600080fd5b61017760048036038101906101729190612084565b6103aa565b604051610185929190612159565b60405180910390f35b610196610466565b005b6101a0610692565b6040516101ad9190612189565b60405180910390f35b6101be61069c565b005b6101da60048036038101906101d591906122d9565b61079a565b005b6101f660048036038101906101f19190612380565b61094a565b005b610200610bdd565b005b61020a610d20565b6040516102179190612505565b60405180910390f35b61023a60048036038101906102359190612084565b610e1b565b6040516102479190612536565b60405180910390f35b610258610e5a565b6040516102659190612189565b60405180910390f35b610276610e60565b005b610280610ee8565b60405161028d9190612189565b60405180910390f35b61029e610eee565b6040516102ab9190612536565b60405180910390f35b6102bc610f17565b6040516102cb93929190612551565b60405180910390f35b6102dc61107e565b005b6102f860048036038101906102f39190612657565b6111c5565b005b6103026114f9565b005b61030c61163c565b6040516103199190612189565b60405180910390f35b61032a611642565b604051610337919061275e565b60405180910390f35b61035a60048036038101906103559190612084565b61174c565b005b610364611ab7565b005b61036e611c2f565b005b610378611d2d565b60405161038591906127f7565b60405180910390f35b6103a860048036038101906103a39190612380565b611d40565b005b600381815481106103ba57600080fd5b90600052602060002090600202016000915090508060000180546103dd90612841565b80601f016020809104026020016040519081016040528092919081815260200182805461040990612841565b80156104565780601f1061042b57610100808354040283529160200191610456565b820191906000526020600020905b81548152906001019060200180831161043957829003601f168201915b5050505050908060010154905082565b61046e611e38565b73ffffffffffffffffffffffffffffffffffffffff1661048c610eee565b73ffffffffffffffffffffffffffffffffffffffff16146104e2576040517f08c379a00000000000000000000000000000000000000000000000000000000081526004016104d9906128bf565b60405180910390fd5b60058060058111156104f7576104f6612780565b5b600060149054906101000a900460ff16600581111561051957610518612780565b5b14610559576040517f08c379a000000000000000000000000000000000000000000000000000000000815260040161055090612951565b60405180910390fd5b610561611ab7565b6003600061056f9190611f04565b60005b60028054905081101561067e576040518060600160405280600015158152602001600015158152602001600081525060016000600284815481106105b9576105b8612971565b5b9060005260206000200160009054906101000a900473ffffffffffffffffffffffffffffffffffffffff1673ffffffffffffffffffffffffffffffffffffffff1673ffffffffffffffffffffffffffffffffffffffff16815260200190815260200160002060008201518160000160006101000a81548160ff02191690831515021790555060208201518160000160016101000a81548160ff021916908315150217905550604082015181600101559050508080610676906129cf565b915050610572565b506000600481905550600060068190555050565b6000600654905090565b6106a4611e38565b73ffffffffffffffffffffffffffffffffffffffff166106c2610eee565b73ffffffffffffffffffffffffffffffffffffffff1614610718576040517f08c379a000000000000000000000000000000000000000000000000000000000815260040161070f906128bf565b60405180910390fd5b600480600581111561072d5761072c612780565b5b600060149054906101000a900460ff16600581111561074f5761074e612780565b5b1461078f576040517f08c379a000000000000000000000000000000000000000000000000000000000815260040161078690612951565b60405180910390fd5b610797611ab7565b50565b60018060058111156107af576107ae612780565b5b600060149054906101000a900460ff1660058111156107d1576107d0612780565b5b14610811576040517f08c379a000000000000000000000000000000000000000000000000000000000815260040161080890612951565b60405180910390fd5b600160003373ffffffffffffffffffffffffffffffffffffffff1673ffffffffffffffffffffffffffffffffffffffff16815260200190815260200160002060000160009054906101000a900460ff166108a0576040517f08c379a000000000000000000000000000000000000000000000000000000000815260040161089790612a64565b60405180910390fd5b600360405180604001604052808481526020016000815250908060018154018082558091505060019003906000526020600020906002020160009091909190915060008201518160000190805190602001906108fd929190611f28565b506020820151816001015550507f92e393e9b54e2f801d3ea4beb0c5e71a21cc34a5d34b77d0fb8a3aa1650dc18f60038054905060405161093e9190612189565b60405180910390a15050565b610952611e38565b73ffffffffffffffffffffffffffffffffffffffff16610970610eee565b73ffffffffffffffffffffffffffffffffffffffff16146109c6576040517f08c379a00000000000000000000000000000000000000000000000000000000081526004016109bd906128bf565b60405180910390fd5b60008060058111156109db576109da612780565b5b600060149054906101000a900460ff1660058111156109fd576109fc612780565b5b14610a3d576040517f08c379a0000000000000000000000000000000000000000000000000000000008152600401610a3490612951565b60405180910390fd5b600160008373ffffffffffffffffffffffffffffffffffffffff1673ffffffffffffffffffffffffffffffffffffffff16815260200190815260200160002060000160009054906101000a900460ff1615610acd576040517f08c379a0000000000000000000000000000000000000000000000000000000008152600401610ac490612af6565b60405180910390fd5b60018060008473ffffffffffffffffffffffffffffffffffffffff1673ffffffffffffffffffffffffffffffffffffffff16815260200190815260200160002060000160006101000a81548160ff0219169083151502179055506002829080600181540180825580915050600190039060005260206000200160009091909190916101000a81548173ffffffffffffffffffffffffffffffffffffffff021916908373ffffffffffffffffffffffffffffffffffffffff16021790555060066000815480929190610b9d906129cf565b91905055507fb6be2187d059cc2a55fe29e0e503b566e1e0f8c8780096e185429350acffd3dd82604051610bd19190612536565b60405180910390a15050565b610be5611e38565b73ffffffffffffffffffffffffffffffffffffffff16610c03610eee565b73ffffffffffffffffffffffffffffffffffffffff1614610c59576040517f08c379a0000000000000000000000000000000000000000000000000000000008152600401610c50906128bf565b60405180910390fd5b6000806005811115610c6e57610c6d612780565b5b600060149054906101000a900460ff166005811115610c9057610c8f612780565b5b14610cd0576040517f08c379a0000000000000000000000000000000000000000000000000000000008152600401610cc790612951565b60405180910390fd5b600060065411610d15576040517f08c379a0000000000000000000000000000000000000000000000000000000008152600401610d0c90612b88565b60405180910390fd5b610d1d611ab7565b50565b60606003805480602002602001604051908101604052809291908181526020016000905b82821015610e125783829060005260206000209060020201604051806040016040529081600082018054610d7790612841565b80601f0160208091040260200160405190810160405280929190818152602001828054610da390612841565b8015610df05780601f10610dc557610100808354040283529160200191610df0565b820191906000526020600020905b815481529060010190602001808311610dd357829003601f168201915b5050505050815260200160018201548152505081526020019060010190610d44565b50505050905090565b60028181548110610e2b57600080fd5b906000526020600020016000915054906101000a900473ffffffffffffffffffffffffffffffffffffffff1681565b60065481565b610e68611e38565b73ffffffffffffffffffffffffffffffffffffffff16610e86610eee565b73ffffffffffffffffffffffffffffffffffffffff1614610edc576040517f08c379a0000000000000000000000000000000000000000000000000000000008152600401610ed3906128bf565b60405180910390fd5b610ee66000611e40565b565b60055481565b60008060009054906101000a900473ffffffffffffffffffffffffffffffffffffffff16905090565b6000606060006005806005811115610f3257610f31612780565b5b600060149054906101000a900460ff166005811115610f5457610f53612780565b5b14610f94576040517f08c379a0000000000000000000000000000000000000000000000000000000008152600401610f8b90612951565b60405180910390fd5b600454600360045481548110610fad57610fac612971565b5b9060005260206000209060020201600001600360045481548110610fd457610fd3612971565b5b906000526020600020906002020160010154818054610ff290612841565b80601f016020809104026020016040519081016040528092919081815260200182805461101e90612841565b801561106b5780601f106110405761010080835404028352916020019161106b565b820191906000526020600020905b81548152906001019060200180831161104e57829003601f168201915b5050505050915093509350935050909192565b611086611e38565b73ffffffffffffffffffffffffffffffffffffffff166110a4610eee565b73ffffffffffffffffffffffffffffffffffffffff16146110fa576040517f08c379a00000000000000000000000000000000000000000000000000000000081526004016110f1906128bf565b60405180910390fd5b600180600581111561110f5761110e612780565b5b600060149054906101000a900460ff16600581111561113157611130612780565b5b14611171576040517f08c379a000000000000000000000000000000000000000000000000000000000815260040161116890612951565b60405180910390fd5b600160038054905010156111ba576040517f08c379a00000000000000000000000000000000000000000000000000000000081526004016111b190612c1a565b60405180910390fd5b6111c2611ab7565b50565b6111cd611e38565b73ffffffffffffffffffffffffffffffffffffffff166111eb610eee565b73ffffffffffffffffffffffffffffffffffffffff1614611241576040517f08c379a0000000000000000000000000000000000000000000000000000000008152600401611238906128bf565b60405180910390fd5b600080600581111561125657611255612780565b5b600060149054906101000a900460ff16600581111561127857611277612780565b5b146112b8576040517f08c379a00000000000000000000000000000000000000000000000000000000081526004016112af90612951565b60405180910390fd5b60005b82518110156114f457600160008483815181106112db576112da612971565b5b602002602001015173ffffffffffffffffffffffffffffffffffffffff1673ffffffffffffffffffffffffffffffffffffffff16815260200190815260200160002060000160009054906101000a900460ff166114e157604051806060016040528060011515815260200160001515815260200160008152506001600085848151811061136b5761136a612971565b5b602002602001015173ffffffffffffffffffffffffffffffffffffffff1673ffffffffffffffffffffffffffffffffffffffff16815260200190815260200160002060008201518160000160006101000a81548160ff02191690831515021790555060208201518160000160016101000a81548160ff02191690831515021790555060408201518160010155905050600283828151811061140f5761140e612971565b5b60200260200101519080600181540180825580915050600190039060005260206000200160009091909190916101000a81548173ffffffffffffffffffffffffffffffffffffffff021916908373ffffffffffffffffffffffffffffffffffffffff1602179055506006600081548092919061148a906129cf565b91905055507fb6be2187d059cc2a55fe29e0e503b566e1e0f8c8780096e185429350acffd3dd8382815181106114c3576114c2612971565b5b60200260200101516040516114d89190612536565b60405180910390a15b80806114ec906129cf565b9150506112bb565b505050565b611501611e38565b73ffffffffffffffffffffffffffffffffffffffff1661151f610eee565b73ffffffffffffffffffffffffffffffffffffffff1614611575576040517f08c379a000000000000000000000000000000000000000000000000000000000815260040161156c906128bf565b60405180910390fd5b600380600581111561158a57611589612780565b5b600060149054906101000a900460ff1660058111156115ac576115ab612780565b5b146115ec576040517f08c379a00000000000000000000000000000000000000000000000000000000081526004016115e390612951565b60405180910390fd5b600060055411611631576040517f08c379a000000000000000000000000000000000000000000000000000000000815260040161162890612c86565b60405180910390fd5b611639611ab7565b50565b60045481565b606061164c611e38565b73ffffffffffffffffffffffffffffffffffffffff1661166a610eee565b73ffffffffffffffffffffffffffffffffffffffff16146116c0576040517f08c379a00000000000000000000000000000000000000000000000000000000081526004016116b7906128bf565b60405180910390fd5b600280548060200260200160405190810160405280929190818152602001828054801561174257602002820191906000526020600020905b8160009054906101000a900473ffffffffffffffffffffffffffffffffffffffff1673ffffffffffffffffffffffffffffffffffffffff16815260200190600101908083116116f8575b5050505050905090565b600380600581111561176157611760612780565b5b600060149054906101000a900460ff16600581111561178357611782612780565b5b146117c3576040517f08c379a00000000000000000000000000000000000000000000000000000000081526004016117ba90612951565b60405180910390fd5b600160003373ffffffffffffffffffffffffffffffffffffffff1673ffffffffffffffffffffffffffffffffffffffff16815260200190815260200160002060000160009054906101000a900460ff16611852576040517f08c379a000000000000000000000000000000000000000000000000000000000815260040161184990612a64565b60405180910390fd5b600160003373ffffffffffffffffffffffffffffffffffffffff1673ffffffffffffffffffffffffffffffffffffffff16815260200190815260200160002060000160019054906101000a900460ff16156118e2576040517f08c379a00000000000000000000000000000000000000000000000000000000081526004016118d990612cf2565b60405180910390fd5b81600380549050101561192a576040517f08c379a000000000000000000000000000000000000000000000000000000000815260040161192190612d5e565b60405180910390fd5b60018060003373ffffffffffffffffffffffffffffffffffffffff1673ffffffffffffffffffffffffffffffffffffffff16815260200190815260200160002060000160016101000a81548160ff02191690831515021790555081600160003373ffffffffffffffffffffffffffffffffffffffff1673ffffffffffffffffffffffffffffffffffffffff16815260200190815260200160002060010181905550600382815481106119df576119de612971565b5b90600052602060002090600202016001016000815480929190611a01906129cf565b919050555060056000815480929190611a19906129cf565b9190505550600360045481548110611a3457611a33612971565b5b90600052602060002090600202016001015460038381548110611a5a57611a59612971565b5b9060005260206000209060020201600101541115611a7a57816004819055505b7f4d99b957a2bc29a30ebd96a7be8e68fe50a3c701db28a91436490b7d53870ca43383604051611aab929190612d7e565b60405180910390a15050565b611abf611e38565b73ffffffffffffffffffffffffffffffffffffffff16611add610eee565b73ffffffffffffffffffffffffffffffffffffffff1614611b33576040517f08c379a0000000000000000000000000000000000000000000000000000000008152600401611b2a906128bf565b60405180910390fd5b6000600580811115611b4857611b47612780565b5b600060149054906101000a900460ff166005811115611b6a57611b69612780565b5b1415611b77576000611bb8565b6001600060149054906101000a900460ff166005811115611b9b57611b9a612780565b5b611ba59190612da7565b6005811115611bb757611bb6612780565b5b5b90507f0a97a4ee45751e2abf3e4fc8946939630b11b371ea8ae39ccdc3056e98f5cc3f600060149054906101000a900460ff1682604051611bfa929190612dfd565b60405180910390a180600060146101000a81548160ff02191690836005811115611c2757611c26612780565b5b021790555050565b611c37611e38565b73ffffffffffffffffffffffffffffffffffffffff16611c55610eee565b73ffffffffffffffffffffffffffffffffffffffff1614611cab576040517f08c379a0000000000000000000000000000000000000000000000000000000008152600401611ca2906128bf565b60405180910390fd5b6002806005811115611cc057611cbf612780565b5b600060149054906101000a900460ff166005811115611ce257611ce1612780565b5b14611d22576040517f08c379a0000000000000000000000000000000000000000000000000000000008152600401611d1990612951565b60405180910390fd5b611d2a611ab7565b50565b600060149054906101000a900460ff1681565b611d48611e38565b73ffffffffffffffffffffffffffffffffffffffff16611d66610eee565b73ffffffffffffffffffffffffffffffffffffffff1614611dbc576040517f08c379a0000000000000000000000000000000000000000000000000000000008152600401611db3906128bf565b60405180910390fd5b600073ffffffffffffffffffffffffffffffffffffffff168173ffffffffffffffffffffffffffffffffffffffff161415611e2c576040517f08c379a0000000000000000000000000000000000000000000000000000000008152600401611e2390612e98565b60405180910390fd5b611e3581611e40565b50565b600033905090565b60008060009054906101000a900473ffffffffffffffffffffffffffffffffffffffff169050816000806101000a81548173ffffffffffffffffffffffffffffffffffffffff021916908373ffffffffffffffffffffffffffffffffffffffff1602179055508173ffffffffffffffffffffffffffffffffffffffff168173ffffffffffffffffffffffffffffffffffffffff167f8be0079c531659141344cd1fd0a4f28419497f9722a3daafe3b4186f6b6457e060405160405180910390a35050565b5080546000825560020290600052602060002090810190611f259190611fae565b50565b828054611f3490612841565b90600052602060002090601f016020900481019282611f565760008555611f9d565b82601f10611f6f57805160ff1916838001178555611f9d565b82800160010185558215611f9d579182015b82811115611f9c578251825591602001919060010190611f81565b5b509050611faa9190611fdd565b5090565b5b80821115611fd95760008082016000611fc89190611ffa565b600182016000905550600201611faf565b5090565b5b80821115611ff6576000816000905550600101611fde565b5090565b50805461200690612841565b6000825580601f106120185750612037565b601f0160209004906000526020600020908101906120369190611fdd565b5b50565b6000604051905090565b600080fd5b600080fd5b6000819050919050565b6120618161204e565b811461206c57600080fd5b50565b60008135905061207e81612058565b92915050565b60006020828403121561209a57612099612044565b5b60006120a88482850161206f565b91505092915050565b600081519050919050565b600082825260208201905092915050565b60005b838110156120eb5780820151818401526020810190506120d0565b838111156120fa576000848401525b50505050565b6000601f19601f8301169050919050565b600061211c826120b1565b61212681856120bc565b93506121368185602086016120cd565b61213f81612100565b840191505092915050565b6121538161204e565b82525050565b600060408201905081810360008301526121738185612111565b9050612182602083018461214a565b9392505050565b600060208201905061219e600083018461214a565b92915050565b600080fd5b600080fd5b7f4e487b7100000000000000000000000000000000000000000000000000000000600052604160045260246000fd5b6121e682612100565b810181811067ffffffffffffffff82111715612205576122046121ae565b5b80604052505050565b600061221861203a565b905061222482826121dd565b919050565b600067ffffffffffffffff821115612244576122436121ae565b5b61224d82612100565b9050602081019050919050565b82818337600083830152505050565b600061227c61227784612229565b61220e565b905082815260208101848484011115612298576122976121a9565b5b6122a384828561225a565b509392505050565b600082601f8301126122c0576122bf6121a4565b5b81356122d0848260208601612269565b91505092915050565b6000602082840312156122ef576122ee612044565b5b600082013567ffffffffffffffff81111561230d5761230c612049565b5b612319848285016122ab565b91505092915050565b600073ffffffffffffffffffffffffffffffffffffffff82169050919050565b600061234d82612322565b9050919050565b61235d81612342565b811461236857600080fd5b50565b60008135905061237a81612354565b92915050565b60006020828403121561239657612395612044565b5b60006123a48482850161236b565b91505092915050565b600081519050919050565b600082825260208201905092915050565b6000819050602082019050919050565b600082825260208201905092915050565b60006123f5826120b1565b6123ff81856123d9565b935061240f8185602086016120cd565b61241881612100565b840191505092915050565b61242c8161204e565b82525050565b6000604083016000830151848203600086015261244f82826123ea565b91505060208301516124646020860182612423565b508091505092915050565b600061247b8383612432565b905092915050565b6000602082019050919050565b600061249b826123ad565b6124a581856123b8565b9350836020820285016124b7856123c9565b8060005b858110156124f357848403895281516124d4858261246f565b94506124df83612483565b925060208a019950506001810190506124bb565b50829750879550505050505092915050565b6000602082019050818103600083015261251f8184612490565b905092915050565b61253081612342565b82525050565b600060208201905061254b6000830184612527565b92915050565b6000606082019050612566600083018661214a565b81810360208301526125788185612111565b9050612587604083018461214a565b949350505050565b600067ffffffffffffffff8211156125aa576125a96121ae565b5b602082029050602081019050919050565b600080fd5b60006125d36125ce8461258f565b61220e565b905080838252602082019050602084028301858111156125f6576125f56125bb565b5b835b8181101561261f578061260b888261236b565b8452602084019350506020810190506125f8565b5050509392505050565b600082601f83011261263e5761263d6121a4565b5b813561264e8482602086016125c0565b91505092915050565b60006020828403121561266d5761266c612044565b5b600082013567ffffffffffffffff81111561268b5761268a612049565b5b61269784828501612629565b91505092915050565b600081519050919050565b600082825260208201905092915050565b6000819050602082019050919050565b6126d581612342565b82525050565b60006126e783836126cc565b60208301905092915050565b6000602082019050919050565b600061270b826126a0565b61271581856126ab565b9350612720836126bc565b8060005b8381101561275157815161273888826126db565b9750612743836126f3565b925050600181019050612724565b5085935050505092915050565b600060208201905081810360008301526127788184612700565b905092915050565b7f4e487b7100000000000000000000000000000000000000000000000000000000600052602160045260246000fd5b600681106127c0576127bf612780565b5b50565b60008190506127d1826127af565b919050565b60006127e1826127c3565b9050919050565b6127f1816127d6565b82525050565b600060208201905061280c60008301846127e8565b92915050565b7f4e487b7100000000000000000000000000000000000000000000000000000000600052602260045260246000fd5b6000600282049050600182168061285957607f821691505b6020821081141561286d5761286c612812565b5b50919050565b7f4f776e61626c653a2063616c6c6572206973206e6f7420746865206f776e6572600082015250565b60006128a96020836120bc565b91506128b482612873565b602082019050919050565b600060208201905081810360008301526128d88161289c565b9050919050565b7f46756e6374696f6e2063616e6e6f742062652063616c6c65642061742074686960008201527f732074696d652e00000000000000000000000000000000000000000000000000602082015250565b600061293b6027836120bc565b9150612946826128df565b604082019050919050565b6000602082019050818103600083015261296a8161292e565b9050919050565b7f4e487b7100000000000000000000000000000000000000000000000000000000600052603260045260246000fd5b7f4e487b7100000000000000000000000000000000000000000000000000000000600052601160045260246000fd5b60006129da8261204e565b91507fffffffffffffffffffffffffffffffffffffffffffffffffffffffffffffffff821415612a0d57612a0c6129a0565b5b600182019050919050565b7f596f75277265206e6f74207265676973747265642e0000000000000000000000600082015250565b6000612a4e6015836120bc565b9150612a5982612a18565b602082019050919050565b60006020820190508181036000830152612a7d81612a41565b9050919050565b7f416c7265616479207265676973746572656420696e207468652077686974656c60008201527f697374206d792064656172000000000000000000000000000000000000000000602082015250565b6000612ae0602b836120bc565b9150612aeb82612a84565b604082019050919050565b60006020820190508181036000830152612b0f81612ad3565b9050919050565b7f5468657265206973206e6f7420656e6f756768206164647265737320696e207460008201527f686520574c000000000000000000000000000000000000000000000000000000602082015250565b6000612b726025836120bc565b9150612b7d82612b16565b604082019050919050565b60006020820190508181036000830152612ba181612b65565b9050919050565b7f4e6f7420656e6f7567682070726f706f736974696f6e20746f2073746172742060008201527f6120766f74650000000000000000000000000000000000000000000000000000602082015250565b6000612c046026836120bc565b9150612c0f82612ba8565b604082019050919050565b60006020820190508181036000830152612c3381612bf7565b9050919050565b7f5765206e656564206174206c65617374206f6e6520766f746500000000000000600082015250565b6000612c706019836120bc565b9150612c7b82612c3a565b602082019050919050565b60006020820190508181036000830152612c9f81612c63565b9050919050565b7f596f7520616c726561647920766f746564000000000000000000000000000000600082015250565b6000612cdc6011836120bc565b9150612ce782612ca6565b602082019050919050565b60006020820190508181036000830152612d0b81612ccf565b9050919050565b7f50726f706f73616c2077697368656420646f65736e7420657869737400000000600082015250565b6000612d48601c836120bc565b9150612d5382612d12565b602082019050919050565b60006020820190508181036000830152612d7781612d3b565b9050919050565b6000604082019050612d936000830185612527565b612da0602083018461214a565b9392505050565b6000612db28261204e565b9150612dbd8361204e565b9250827fffffffffffffffffffffffffffffffffffffffffffffffffffffffffffffffff03821115612df257612df16129a0565b5b828201905092915050565b6000604082019050612e1260008301856127e8565b612e1f60208301846127e8565b9392505050565b7f4f776e61626c653a206e6577206f776e657220697320746865207a65726f206160008201527f6464726573730000000000000000000000000000000000000000000000000000602082015250565b6000612e826026836120bc565b9150612e8d82612e26565b604082019050919050565b60006020820190508181036000830152612eb181612e75565b905091905056fea2646970667358221220afc749ef465d8732291e65c903e7f2362251c847106ae09ea83c2057d0ae8b1464736f6c634300080b0033",
  "immutableReferences": {},
  "source": "// SPDX-License-Identifier: MIT\r\npragma solidity 0.8.11;\r\n\r\n//import \"https://github.com/OpenZeppelin/openzeppelin-contracts/blob/master/contracts/access/Ownable.sol\";\r\nimport \"@openzeppelin/contracts/access/Ownable.sol\";\r\n\r\n/*\r\n    @admin : dploye le contrat\r\n    1) L'administrateur du vote enregistre une liste blanche d'lecteurs identifis par leur adresse Ethereum.\r\n    2) L'administrateur du vote commence la session d'enregistrement de la proposition.\r\n    3) Les lecteurs inscrits sont autoriss  enregistrer leurs propositions pendant que la session d'enregistrement est active.\r\n    4) L'administrateur de vote met fin  la session d'enregistrement des propositions.\r\n    5) L'administrateur du vote commence la session de vote.\r\n    6) Les lecteurs inscrits votent pour leurs propositions prfres.\r\n    7) L'administrateur du vote met fin  la session de vote.\r\n    8) L'administrateur du vote comptabilise les votes.\r\n    9) Tout le monde peut vrifier les derniers dtails de la proposition gagnante.\r\n*/\r\n\r\n/*\r\n\tTODO : \r\n\t- Ajouter SafeMath\r\n\t- Adress zero\r\n*/\r\n\r\n\r\ncontract Voting is Ownable{\r\n    struct Voter {\r\n        bool isRegistered;\r\n        bool hasVoted;\r\n        uint votedProposalId;\r\n    }\r\n\r\n    struct Proposal {\r\n        string description;\r\n        uint voteCount;\r\n    }\r\n   \r\n    enum WorkflowStatus {\r\n        RegisteringVoters,\r\n        ProposalsRegistrationStarted,\r\n        ProposalsRegistrationEnded,\r\n        VotingSessionStarted,\r\n        VotingSessionEnded,\r\n        VotesTallied\r\n    }\r\n\r\n    WorkflowStatus public wfStatus = WorkflowStatus.RegisteringVoters;\r\n    mapping (address => Voter) private comptesWL;\r\n    address[] public addressUsed;\r\n    Proposal[] public proposals;\r\n   \r\n    uint public winningProposalId;\r\n    uint public nbVote = 0;\r\n    uint public totalVoter = 0;    \r\n\r\n    event VoterRegistered(address voterAddress);\r\n    event WorkflowStatusChange(WorkflowStatus previousStatus, WorkflowStatus newStatus);\r\n    event ProposalRegistered(uint proposalId);\r\n    event Voted (address voter, uint proposalId);\r\n   \r\n    modifier atStage(WorkflowStatus _status) {\r\n        require(wfStatus == _status, \"Function cannot be called at this time.\");\r\n        _;\r\n    }\r\n\r\n    modifier senderRegistred(){\r\n        require(comptesWL[msg.sender].isRegistered, \"You're not registred.\");\r\n        _;\r\n    }\r\n\r\n    //constructor\r\n   \r\n    //fonctions\r\n    function nextStage() public onlyOwner {\r\n        //If we already are in Stage of VotesTallied, then it's a start over\r\n        WorkflowStatus newStatus = (wfStatus != WorkflowStatus.VotesTallied) ? WorkflowStatus(uint(wfStatus) + 1) : WorkflowStatus.RegisteringVoters;\r\n        emit WorkflowStatusChange(wfStatus,newStatus);\r\n        wfStatus = newStatus;\r\n    }\r\n\r\n    function getWhitelist() public view onlyOwner returns(address[] memory) {\r\n\t\treturn addressUsed;\r\n\t}\r\n\r\n    function getProposalsList() public view returns(Proposal[] memory){\r\n        return proposals;\r\n    }\r\n\r\n\tfunction getTotalVoter() public view returns(uint){\r\n\t\treturn totalVoter;\r\n\t}\r\n\r\n    /*\r\n    *\r\n    *   1) L'administrateur du vote enregistre une liste blanche d'lecteurs identifis par leur adresse Ethereum.\r\n    *\r\n    */\r\n    function registeringUniqueAd(address _address) public onlyOwner atStage(WorkflowStatus.RegisteringVoters){\r\n        require(!comptesWL[_address].isRegistered,\"Already registered in the whitelist my dear\");\r\n        //Cration d'un Voter via Structure & Mj Whitelist address => struct\r\n       \r\n        comptesWL[_address].isRegistered = true;\r\n        addressUsed.push(_address);\r\n\t\t\r\n       \r\n        totalVoter++;\r\n        //Event lecteur enregistr\r\n        emit VoterRegistered(_address);\r\n    }\r\n\r\n    /*\r\n    *\r\n    *   1) L'administrateur du vote enregistre une liste blanche d'lecteurs identifis par leur adresse Ethereum.\r\n    *\r\n    */\r\n    function registeringWL(address[] memory arrayWL) public onlyOwner atStage(WorkflowStatus.RegisteringVoters){\r\n        for(uint i=0;i<arrayWL.length;i++){\r\n            if(!comptesWL[arrayWL[i]].isRegistered){\r\n                comptesWL[arrayWL[i]] = Voter(true,false,0);\r\n                addressUsed.push(arrayWL[i]);\r\n                totalVoter++;\r\n                emit VoterRegistered(arrayWL[i]);\r\n            }\r\n        }\r\n    }\r\n\r\n    /*\r\n    *\r\n    * 2) L'administrateur du vote commence la session d'enregistrement de la proposition.\r\n    *\r\n    */\r\n    function startingProposalSession() public onlyOwner atStage(WorkflowStatus.RegisteringVoters){\r\n        require(totalVoter > 0,\"There is not enough address in the WL\");\r\n        //WL termine, on passe  l'tape d'aps\r\n        nextStage();\r\n    }\r\n\r\n    /*\r\n    *\r\n    *   3) Les lecteurs inscrits sont autoriss  enregistrer leurs propositions pendant que la session d'enregistrement est active.\r\n    *\r\n    */\r\n    function registeringProposal(string memory _description) public atStage(WorkflowStatus.ProposalsRegistrationStarted) senderRegistred{\r\n        proposals.push(Proposal(_description,0));\r\n        emit ProposalRegistered(proposals.length);\r\n    }\r\n\r\n    /*\r\n    *\r\n    *   4) L'administrateur de vote met fin  la session d'enregistrement des propositions.\r\n    *\r\n    */\r\n    function endingProposalSession() public onlyOwner atStage(WorkflowStatus.ProposalsRegistrationStarted){\r\n        //Proposal session over but... do we have at least one vote ?\r\n        require(proposals.length >= 1,\"Not enough proposition to start a vote\");\r\n        nextStage();\r\n    }\r\n\r\n    /*\r\n    *\r\n    *   5) L'administrateur du vote commence la session de vote.\r\n    *\r\n    */\r\n    function startVotingSession() public onlyOwner atStage(WorkflowStatus.ProposalsRegistrationEnded){\r\n        nextStage();\r\n    }\r\n\r\n    /*\r\n    *\r\n    *   6) Les lecteurs inscrits votent pour leurs propositions prfres.\r\n    *\r\n    */\r\n    function votingFor(uint _proposalId) public atStage(WorkflowStatus.VotingSessionStarted) senderRegistred{\r\n        //N'a pas dj vot\r\n        require(!comptesWL[msg.sender].hasVoted,\"You already voted\");        \r\n        //Vote pour une propal existante\r\n        require(proposals.length >= _proposalId,\"Proposal wished doesnt exist\");\r\n\r\n        //Mise  jour du \" voter\"\r\n        comptesWL[msg.sender].hasVoted = true;\r\n        comptesWL[msg.sender].votedProposalId = _proposalId;\r\n\r\n        //Mise  jour du count de vote pour la proposition vote\r\n        proposals[_proposalId].voteCount++;\r\n        //Le nb de vote total augmente\r\n        nbVote++;\r\n       \r\n        if(proposals[_proposalId].voteCount > proposals[winningProposalId].voteCount){\r\n            winningProposalId = _proposalId;\r\n        }\r\n\r\n        //emit\r\n        emit Voted(msg.sender,_proposalId);\r\n    }\r\n\r\n\r\n    /*\r\n    *\r\n    *   7) L'administrateur du vote met fin  la session de vote.\r\n    *\r\n    */\r\n    function endVotingSession() public onlyOwner atStage(WorkflowStatus.VotingSessionStarted){\r\n        require(nbVote > 0,\"We need at least one vote\");\r\n       \r\n        nextStage();\r\n    }\r\n\r\n\r\n    /*\r\n    *\r\n    *   8) L'administrateur du vote comptabilise les votes.\r\n    *\r\n    */\r\n    function countVote() public onlyOwner atStage(WorkflowStatus.VotingSessionEnded){\r\n        /*uint maxCount=0;\r\n        for(uint i = 0;i<proposals.length;i++){\r\n            if(proposals[i].voteCount > maxCount){\r\n                maxCount = proposals[i].voteCount;\r\n                winningProposalId = i;\r\n            }\r\n        }*/\r\n        nextStage();\r\n    }\r\n\r\n    /*\r\n    *\r\n    *   9) Tout le monde peut vrifier les derniers dtails de la proposition gagnante.\r\n    *\r\n    */\r\n    function getWinner() public view atStage(WorkflowStatus.VotesTallied) returns(uint, string memory, uint){\r\n        return (winningProposalId,proposals[winningProposalId].description,proposals[winningProposalId].voteCount);\r\n    }\r\n/*\r\n    function getWinnerATester() public view atStage(WorkflowStatus.VotesTallied) returns(uint, Proposal){\r\n        return (winningProposalId,proposals[winningProposalId]);\r\n    }\r\n*/\r\n    /*\r\n    *   10) Rinitialise l'app de vote\r\n    */\r\n    function reInitStatus() public onlyOwner atStage(WorkflowStatus.VotesTallied) {\r\n        nextStage();\r\n       \r\n        //Re init la liste des proposals, la liste des WL, la winningProposal, le totalVoter etc.)\r\n        //array of proposal\r\n        delete proposals;\r\n        //mapping whitelist\r\n        for(uint i = 0;i<addressUsed.length;i++){\r\n            comptesWL[addressUsed[i]] = Voter(false,false,0);\r\n        }\r\n        //uint winningProposalId\r\n        winningProposalId = 0;\r\n        //uint totalVoter\r\n        totalVoter = 0;\r\n    }\r\n\r\n}",
  "sourcePath": "D:\\Data\\Documents\\TruffleProjects\\Developpeur-Ethereum-Template\\6. Dapp\\Defi\\MyDapp\\contracts\\Voting.sol",
  "compiler": {
    "name": "solc",
    "version": "0.8.11+commit.d7f03943.Emscripten.clang"
  },
  "schemaVersion": "3.4.4",
  "updatedAt": "2022-02-27T12:18:51.218Z",
  "networkType": "ethereum",
  "devdoc": {
    "kind": "dev",
    "methods": {
      "owner()": {
        "details": "Returns the address of the current owner."
      },
      "renounceOwnership()": {
        "details": "Leaves the contract without owner. It will not be possible to call `onlyOwner` functions anymore. Can only be called by the current owner. NOTE: Renouncing ownership will leave the contract without an owner, thereby removing any functionality that is only available to the owner."
      },
      "transferOwnership(address)": {
        "details": "Transfers ownership of the contract to a new account (`newOwner`). Can only be called by the current owner."
      }
    },
    "version": 1
  },
  "userdoc": {
    "kind": "user",
    "methods": {},
    "version": 1
  }
}