{
  "contractName": "Voting",
  "abi": [
    {
      "anonymous": false,
      "inputs": [
        {
          "indexed": true,
          "internalType": "address",
          "name": "previousOwner",
          "type": "address"
        },
        {
          "indexed": true,
          "internalType": "address",
          "name": "newOwner",
          "type": "address"
        }
      ],
      "name": "OwnershipTransferred",
      "type": "event"
    },
    {
      "anonymous": false,
      "inputs": [
        {
          "indexed": false,
          "internalType": "uint256",
          "name": "proposalId",
          "type": "uint256"
        }
      ],
      "name": "ProposalRegistered",
      "type": "event"
    },
    {
      "anonymous": false,
      "inputs": [
        {
          "indexed": false,
          "internalType": "address",
          "name": "voter",
          "type": "address"
        },
        {
          "indexed": false,
          "internalType": "uint256",
          "name": "proposalId",
          "type": "uint256"
        }
      ],
      "name": "Voted",
      "type": "event"
    },
    {
      "anonymous": false,
      "inputs": [
        {
          "indexed": false,
          "internalType": "address",
          "name": "voterAddress",
          "type": "address"
        }
      ],
      "name": "VoterRegistered",
      "type": "event"
    },
    {
      "anonymous": false,
      "inputs": [
        {
          "indexed": false,
          "internalType": "enum Voting.WorkflowStatus",
          "name": "previousStatus",
          "type": "uint8"
        },
        {
          "indexed": false,
          "internalType": "enum Voting.WorkflowStatus",
          "name": "newStatus",
          "type": "uint8"
        }
      ],
      "name": "WorkflowStatusChange",
      "type": "event"
    },
    {
      "inputs": [
        {
          "internalType": "uint256",
          "name": "",
          "type": "uint256"
        }
      ],
      "name": "addressUsed",
      "outputs": [
        {
          "internalType": "address",
          "name": "",
          "type": "address"
        }
      ],
      "stateMutability": "view",
      "type": "function",
      "constant": true
    },
    {
      "inputs": [],
      "name": "nbVote",
      "outputs": [
        {
          "internalType": "uint256",
          "name": "",
          "type": "uint256"
        }
      ],
      "stateMutability": "view",
      "type": "function",
      "constant": true
    },
    {
      "inputs": [],
      "name": "owner",
      "outputs": [
        {
          "internalType": "address",
          "name": "",
          "type": "address"
        }
      ],
      "stateMutability": "view",
      "type": "function",
      "constant": true
    },
    {
      "inputs": [
        {
          "internalType": "uint256",
          "name": "",
          "type": "uint256"
        }
      ],
      "name": "proposals",
      "outputs": [
        {
          "internalType": "string",
          "name": "description",
          "type": "string"
        },
        {
          "internalType": "uint256",
          "name": "voteCount",
          "type": "uint256"
        }
      ],
      "stateMutability": "view",
      "type": "function",
      "constant": true
    },
    {
      "inputs": [],
      "name": "renounceOwnership",
      "outputs": [],
      "stateMutability": "nonpayable",
      "type": "function"
    },
    {
      "inputs": [],
      "name": "totalVoter",
      "outputs": [
        {
          "internalType": "uint256",
          "name": "",
          "type": "uint256"
        }
      ],
      "stateMutability": "view",
      "type": "function",
      "constant": true
    },
    {
      "inputs": [
        {
          "internalType": "address",
          "name": "newOwner",
          "type": "address"
        }
      ],
      "name": "transferOwnership",
      "outputs": [],
      "stateMutability": "nonpayable",
      "type": "function"
    },
    {
      "inputs": [],
      "name": "wfStatus",
      "outputs": [
        {
          "internalType": "enum Voting.WorkflowStatus",
          "name": "",
          "type": "uint8"
        }
      ],
      "stateMutability": "view",
      "type": "function",
      "constant": true
    },
    {
      "inputs": [],
      "name": "winningProposalId",
      "outputs": [
        {
          "internalType": "uint256",
          "name": "",
          "type": "uint256"
        }
      ],
      "stateMutability": "view",
      "type": "function",
      "constant": true
    },
    {
      "inputs": [],
      "name": "nextStage",
      "outputs": [],
      "stateMutability": "nonpayable",
      "type": "function"
    },
    {
      "inputs": [],
      "name": "getWhitelist",
      "outputs": [
        {
          "internalType": "address[]",
          "name": "",
          "type": "address[]"
        }
      ],
      "stateMutability": "view",
      "type": "function",
      "constant": true
    },
    {
      "inputs": [
        {
          "internalType": "address",
          "name": "_address",
          "type": "address"
        }
      ],
      "name": "getWhitelistedVoter",
      "outputs": [
        {
          "components": [
            {
              "internalType": "bool",
              "name": "isRegistered",
              "type": "bool"
            },
            {
              "internalType": "bool",
              "name": "hasVoted",
              "type": "bool"
            },
            {
              "internalType": "uint256",
              "name": "votedProposalId",
              "type": "uint256"
            }
          ],
          "internalType": "struct Voting.Voter",
          "name": "",
          "type": "tuple"
        }
      ],
      "stateMutability": "view",
      "type": "function",
      "constant": true
    },
    {
      "inputs": [],
      "name": "getProposalsList",
      "outputs": [
        {
          "components": [
            {
              "internalType": "string",
              "name": "description",
              "type": "string"
            },
            {
              "internalType": "uint256",
              "name": "voteCount",
              "type": "uint256"
            }
          ],
          "internalType": "struct Voting.Proposal[]",
          "name": "",
          "type": "tuple[]"
        }
      ],
      "stateMutability": "view",
      "type": "function",
      "constant": true
    },
    {
      "inputs": [],
      "name": "getTotalVoter",
      "outputs": [
        {
          "internalType": "uint256",
          "name": "",
          "type": "uint256"
        }
      ],
      "stateMutability": "view",
      "type": "function",
      "constant": true
    },
    {
      "inputs": [
        {
          "internalType": "address",
          "name": "_address",
          "type": "address"
        }
      ],
      "name": "registeringUniqueAd",
      "outputs": [],
      "stateMutability": "nonpayable",
      "type": "function"
    },
    {
      "inputs": [
        {
          "internalType": "address[]",
          "name": "arrayWL",
          "type": "address[]"
        }
      ],
      "name": "registeringWL",
      "outputs": [],
      "stateMutability": "nonpayable",
      "type": "function"
    },
    {
      "inputs": [],
      "name": "startingProposalSession",
      "outputs": [],
      "stateMutability": "nonpayable",
      "type": "function"
    },
    {
      "inputs": [
        {
          "internalType": "string",
          "name": "_description",
          "type": "string"
        }
      ],
      "name": "registeringProposal",
      "outputs": [],
      "stateMutability": "nonpayable",
      "type": "function"
    },
    {
      "inputs": [],
      "name": "endingProposalSession",
      "outputs": [],
      "stateMutability": "nonpayable",
      "type": "function"
    },
    {
      "inputs": [],
      "name": "startVotingSession",
      "outputs": [],
      "stateMutability": "nonpayable",
      "type": "function"
    },
    {
      "inputs": [
        {
          "internalType": "uint256",
          "name": "_proposalId",
          "type": "uint256"
        }
      ],
      "name": "votingFor",
      "outputs": [],
      "stateMutability": "nonpayable",
      "type": "function"
    },
    {
      "inputs": [],
      "name": "endVotingSession",
      "outputs": [],
      "stateMutability": "nonpayable",
      "type": "function"
    },
    {
      "inputs": [],
      "name": "countVote",
      "outputs": [],
      "stateMutability": "nonpayable",
      "type": "function"
    },
    {
      "inputs": [],
      "name": "getWinner",
      "outputs": [
        {
          "internalType": "uint256",
          "name": "",
          "type": "uint256"
        },
        {
          "internalType": "string",
          "name": "",
          "type": "string"
        },
        {
          "internalType": "uint256",
          "name": "",
          "type": "uint256"
        }
      ],
      "stateMutability": "view",
      "type": "function",
      "constant": true
    },
    {
      "inputs": [],
      "name": "reInitStatus",
      "outputs": [],
      "stateMutability": "nonpayable",
      "type": "function"
    }
  ],
  "bytecode": "0x608060405260008060146101000a81548160ff021916908360058111156200002c576200002b6200013b565b5b0217905550600060055560006006553480156200004857600080fd5b50620000696200005d6200006f60201b60201c565b6200007760201b60201c565b6200016a565b600033905090565b60008060009054906101000a900473ffffffffffffffffffffffffffffffffffffffff169050816000806101000a81548173ffffffffffffffffffffffffffffffffffffffff021916908373ffffffffffffffffffffffffffffffffffffffff1602179055508173ffffffffffffffffffffffffffffffffffffffff168173ffffffffffffffffffffffffffffffffffffffff167f8be0079c531659141344cd1fd0a4f28419497f9722a3daafe3b4186f6b6457e060405160405180910390a35050565b7f4e487b7100000000000000000000000000000000000000000000000000000000600052602160045260246000fd5b61311a806200017a6000396000f3fe608060405234801561001057600080fd5b50600436106101735760003560e01c80638da5cb5b116100de578063d01f63f511610097578063ee3743ab11610071578063ee3743ab146103a7578063ee74c678146103b1578063eea24be0146103bb578063f2fde38b146103d957610173565b8063d01f63f51461033d578063e81783481461035b578063eda2a6141461037757610173565b80638da5cb5b146102b15780638e7ea5b2146102cf57806390b8a0d5146102ef578063a3d22a56146102f9578063a7bfab1614610315578063c64963c51461031f57610173565b80634f621816116101305780634f62181614610213578063578178c01461021d5780635d738fb71461023b5780636332abc91461026b578063715018a61461028957806372f24fc11461029357610173565b8063013cf08b1461017857806304cc2ed6146101a95780630b93400e146101b35780631a6cd2fd146101d157806326e3233d146101db5780632736f7e8146101f7575b600080fd5b610192600480360381019061018d9190612238565b6103f5565b6040516101a092919061230d565b60405180910390f35b6101b16104b1565b005b6101bb6106eb565b6040516101c8919061233d565b60405180910390f35b6101d96106f5565b005b6101f560048036038101906101f0919061248d565b6107f3565b005b610211600480360381019061020c9190612534565b6109a3565b005b61021b610c36565b005b610225610d79565b60405161023291906126b9565b60405180910390f35b61025560048036038101906102509190612238565b610e74565b60405161026291906126ea565b60405180910390f35b610273610eb3565b604051610280919061233d565b60405180910390f35b610291610eb9565b005b61029b610f41565b6040516102a8919061233d565b60405180910390f35b6102b9610f47565b6040516102c691906126ea565b60405180910390f35b6102d7610f70565b6040516102e693929190612705565b60405180910390f35b6102f76110d7565b005b610313600480360381019061030e919061280b565b61121e565b005b61031d611552565b005b610327611695565b604051610334919061233d565b60405180910390f35b61034561169b565b6040516103529190612912565b60405180910390f35b61037560048036038101906103709190612238565b6117a5565b005b610391600480360381019061038c9190612534565b611b10565b60405161039e9190612991565b60405180910390f35b6103af611c25565b005b6103b9611d9d565b005b6103c3611e9b565b6040516103d09190612a23565b60405180910390f35b6103f360048036038101906103ee9190612534565b611eae565b005b6003818154811061040557600080fd5b906000526020600020906002020160009150905080600001805461042890612a6d565b80601f016020809104026020016040519081016040528092919081815260200182805461045490612a6d565b80156104a15780601f10610476576101008083540402835291602001916104a1565b820191906000526020600020905b81548152906001019060200180831161048457829003601f168201915b5050505050908060010154905082565b6104b9611fa6565b73ffffffffffffffffffffffffffffffffffffffff166104d7610f47565b73ffffffffffffffffffffffffffffffffffffffff161461052d576040517f08c379a000000000000000000000000000000000000000000000000000000000815260040161052490612aeb565b60405180910390fd5b6005806005811115610542576105416129ac565b5b600060149054906101000a900460ff166005811115610564576105636129ac565b5b146105a4576040517f08c379a000000000000000000000000000000000000000000000000000000000815260040161059b90612b7d565b60405180910390fd5b6105ac611c25565b600360006105ba9190612072565b60005b6002805490508110156106c95760405180606001604052806000151581526020016000151581526020016000815250600160006002848154811061060457610603612b9d565b5b9060005260206000200160009054906101000a900473ffffffffffffffffffffffffffffffffffffffff1673ffffffffffffffffffffffffffffffffffffffff1673ffffffffffffffffffffffffffffffffffffffff16815260200190815260200160002060008201518160000160006101000a81548160ff02191690831515021790555060208201518160000160016101000a81548160ff0219169083151502179055506040820151816001015590505080806106c190612bfb565b9150506105bd565b5060006004819055506000600681905550600260006106e89190612096565b50565b6000600654905090565b6106fd611fa6565b73ffffffffffffffffffffffffffffffffffffffff1661071b610f47565b73ffffffffffffffffffffffffffffffffffffffff1614610771576040517f08c379a000000000000000000000000000000000000000000000000000000000815260040161076890612aeb565b60405180910390fd5b6004806005811115610786576107856129ac565b5b600060149054906101000a900460ff1660058111156107a8576107a76129ac565b5b146107e8576040517f08c379a00000000000000000000000000000000000000000000000000000000081526004016107df90612b7d565b60405180910390fd5b6107f0611c25565b50565b6001806005811115610808576108076129ac565b5b600060149054906101000a900460ff16600581111561082a576108296129ac565b5b1461086a576040517f08c379a000000000000000000000000000000000000000000000000000000000815260040161086190612b7d565b60405180910390fd5b600160003373ffffffffffffffffffffffffffffffffffffffff1673ffffffffffffffffffffffffffffffffffffffff16815260200190815260200160002060000160009054906101000a900460ff166108f9576040517f08c379a00000000000000000000000000000000000000000000000000000000081526004016108f090612c90565b60405180910390fd5b600360405180604001604052808481526020016000815250908060018154018082558091505060019003906000526020600020906002020160009091909190915060008201518160000190805190602001906109569291906120b7565b506020820151816001015550507f92e393e9b54e2f801d3ea4beb0c5e71a21cc34a5d34b77d0fb8a3aa1650dc18f600380549050604051610997919061233d565b60405180910390a15050565b6109ab611fa6565b73ffffffffffffffffffffffffffffffffffffffff166109c9610f47565b73ffffffffffffffffffffffffffffffffffffffff1614610a1f576040517f08c379a0000000000000000000000000000000000000000000000000000000008152600401610a1690612aeb565b60405180910390fd5b6000806005811115610a3457610a336129ac565b5b600060149054906101000a900460ff166005811115610a5657610a556129ac565b5b14610a96576040517f08c379a0000000000000000000000000000000000000000000000000000000008152600401610a8d90612b7d565b60405180910390fd5b600160008373ffffffffffffffffffffffffffffffffffffffff1673ffffffffffffffffffffffffffffffffffffffff16815260200190815260200160002060000160009054906101000a900460ff1615610b26576040517f08c379a0000000000000000000000000000000000000000000000000000000008152600401610b1d90612d22565b60405180910390fd5b60018060008473ffffffffffffffffffffffffffffffffffffffff1673ffffffffffffffffffffffffffffffffffffffff16815260200190815260200160002060000160006101000a81548160ff0219169083151502179055506002829080600181540180825580915050600190039060005260206000200160009091909190916101000a81548173ffffffffffffffffffffffffffffffffffffffff021916908373ffffffffffffffffffffffffffffffffffffffff16021790555060066000815480929190610bf690612bfb565b91905055507fb6be2187d059cc2a55fe29e0e503b566e1e0f8c8780096e185429350acffd3dd82604051610c2a91906126ea565b60405180910390a15050565b610c3e611fa6565b73ffffffffffffffffffffffffffffffffffffffff16610c5c610f47565b73ffffffffffffffffffffffffffffffffffffffff1614610cb2576040517f08c379a0000000000000000000000000000000000000000000000000000000008152600401610ca990612aeb565b60405180910390fd5b6000806005811115610cc757610cc66129ac565b5b600060149054906101000a900460ff166005811115610ce957610ce86129ac565b5b14610d29576040517f08c379a0000000000000000000000000000000000000000000000000000000008152600401610d2090612b7d565b60405180910390fd5b600060065411610d6e576040517f08c379a0000000000000000000000000000000000000000000000000000000008152600401610d6590612db4565b60405180910390fd5b610d76611c25565b50565b60606003805480602002602001604051908101604052809291908181526020016000905b82821015610e6b5783829060005260206000209060020201604051806040016040529081600082018054610dd090612a6d565b80601f0160208091040260200160405190810160405280929190818152602001828054610dfc90612a6d565b8015610e495780601f10610e1e57610100808354040283529160200191610e49565b820191906000526020600020905b815481529060010190602001808311610e2c57829003601f168201915b5050505050815260200160018201548152505081526020019060010190610d9d565b50505050905090565b60028181548110610e8457600080fd5b906000526020600020016000915054906101000a900473ffffffffffffffffffffffffffffffffffffffff1681565b60065481565b610ec1611fa6565b73ffffffffffffffffffffffffffffffffffffffff16610edf610f47565b73ffffffffffffffffffffffffffffffffffffffff1614610f35576040517f08c379a0000000000000000000000000000000000000000000000000000000008152600401610f2c90612aeb565b60405180910390fd5b610f3f6000611fae565b565b60055481565b60008060009054906101000a900473ffffffffffffffffffffffffffffffffffffffff16905090565b6000606060006005806005811115610f8b57610f8a6129ac565b5b600060149054906101000a900460ff166005811115610fad57610fac6129ac565b5b14610fed576040517f08c379a0000000000000000000000000000000000000000000000000000000008152600401610fe490612b7d565b60405180910390fd5b60045460036004548154811061100657611005612b9d565b5b906000526020600020906002020160000160036004548154811061102d5761102c612b9d565b5b90600052602060002090600202016001015481805461104b90612a6d565b80601f016020809104026020016040519081016040528092919081815260200182805461107790612a6d565b80156110c45780601f10611099576101008083540402835291602001916110c4565b820191906000526020600020905b8154815290600101906020018083116110a757829003601f168201915b5050505050915093509350935050909192565b6110df611fa6565b73ffffffffffffffffffffffffffffffffffffffff166110fd610f47565b73ffffffffffffffffffffffffffffffffffffffff1614611153576040517f08c379a000000000000000000000000000000000000000000000000000000000815260040161114a90612aeb565b60405180910390fd5b6001806005811115611168576111676129ac565b5b600060149054906101000a900460ff16600581111561118a576111896129ac565b5b146111ca576040517f08c379a00000000000000000000000000000000000000000000000000000000081526004016111c190612b7d565b60405180910390fd5b60016003805490501015611213576040517f08c379a000000000000000000000000000000000000000000000000000000000815260040161120a90612e46565b60405180910390fd5b61121b611c25565b50565b611226611fa6565b73ffffffffffffffffffffffffffffffffffffffff16611244610f47565b73ffffffffffffffffffffffffffffffffffffffff161461129a576040517f08c379a000000000000000000000000000000000000000000000000000000000815260040161129190612aeb565b60405180910390fd5b60008060058111156112af576112ae6129ac565b5b600060149054906101000a900460ff1660058111156112d1576112d06129ac565b5b14611311576040517f08c379a000000000000000000000000000000000000000000000000000000000815260040161130890612b7d565b60405180910390fd5b60005b825181101561154d576001600084838151811061133457611333612b9d565b5b602002602001015173ffffffffffffffffffffffffffffffffffffffff1673ffffffffffffffffffffffffffffffffffffffff16815260200190815260200160002060000160009054906101000a900460ff1661153a5760405180606001604052806001151581526020016000151581526020016000815250600160008584815181106113c4576113c3612b9d565b5b602002602001015173ffffffffffffffffffffffffffffffffffffffff1673ffffffffffffffffffffffffffffffffffffffff16815260200190815260200160002060008201518160000160006101000a81548160ff02191690831515021790555060208201518160000160016101000a81548160ff02191690831515021790555060408201518160010155905050600283828151811061146857611467612b9d565b5b60200260200101519080600181540180825580915050600190039060005260206000200160009091909190916101000a81548173ffffffffffffffffffffffffffffffffffffffff021916908373ffffffffffffffffffffffffffffffffffffffff160217905550600660008154809291906114e390612bfb565b91905055507fb6be2187d059cc2a55fe29e0e503b566e1e0f8c8780096e185429350acffd3dd83828151811061151c5761151b612b9d565b5b602002602001015160405161153191906126ea565b60405180910390a15b808061154590612bfb565b915050611314565b505050565b61155a611fa6565b73ffffffffffffffffffffffffffffffffffffffff16611578610f47565b73ffffffffffffffffffffffffffffffffffffffff16146115ce576040517f08c379a00000000000000000000000000000000000000000000000000000000081526004016115c590612aeb565b60405180910390fd5b60038060058111156115e3576115e26129ac565b5b600060149054906101000a900460ff166005811115611605576116046129ac565b5b14611645576040517f08c379a000000000000000000000000000000000000000000000000000000000815260040161163c90612b7d565b60405180910390fd5b60006005541161168a576040517f08c379a000000000000000000000000000000000000000000000000000000000815260040161168190612eb2565b60405180910390fd5b611692611c25565b50565b60045481565b60606116a5611fa6565b73ffffffffffffffffffffffffffffffffffffffff166116c3610f47565b73ffffffffffffffffffffffffffffffffffffffff1614611719576040517f08c379a000000000000000000000000000000000000000000000000000000000815260040161171090612aeb565b60405180910390fd5b600280548060200260200160405190810160405280929190818152602001828054801561179b57602002820191906000526020600020905b8160009054906101000a900473ffffffffffffffffffffffffffffffffffffffff1673ffffffffffffffffffffffffffffffffffffffff1681526020019060010190808311611751575b5050505050905090565b60038060058111156117ba576117b96129ac565b5b600060149054906101000a900460ff1660058111156117dc576117db6129ac565b5b1461181c576040517f08c379a000000000000000000000000000000000000000000000000000000000815260040161181390612b7d565b60405180910390fd5b600160003373ffffffffffffffffffffffffffffffffffffffff1673ffffffffffffffffffffffffffffffffffffffff16815260200190815260200160002060000160009054906101000a900460ff166118ab576040517f08c379a00000000000000000000000000000000000000000000000000000000081526004016118a290612c90565b60405180910390fd5b600160003373ffffffffffffffffffffffffffffffffffffffff1673ffffffffffffffffffffffffffffffffffffffff16815260200190815260200160002060000160019054906101000a900460ff161561193b576040517f08c379a000000000000000000000000000000000000000000000000000000000815260040161193290612f1e565b60405180910390fd5b816003805490501015611983576040517f08c379a000000000000000000000000000000000000000000000000000000000815260040161197a90612f8a565b60405180910390fd5b60018060003373ffffffffffffffffffffffffffffffffffffffff1673ffffffffffffffffffffffffffffffffffffffff16815260200190815260200160002060000160016101000a81548160ff02191690831515021790555081600160003373ffffffffffffffffffffffffffffffffffffffff1673ffffffffffffffffffffffffffffffffffffffff1681526020019081526020016000206001018190555060038281548110611a3857611a37612b9d565b5b90600052602060002090600202016001016000815480929190611a5a90612bfb565b919050555060056000815480929190611a7290612bfb565b9190505550600360045481548110611a8d57611a8c612b9d565b5b90600052602060002090600202016001015460038381548110611ab357611ab2612b9d565b5b9060005260206000209060020201600101541115611ad357816004819055505b7f4d99b957a2bc29a30ebd96a7be8e68fe50a3c701db28a91436490b7d53870ca43383604051611b04929190612faa565b60405180910390a15050565b611b1861213d565b611b20611fa6565b73ffffffffffffffffffffffffffffffffffffffff16611b3e610f47565b73ffffffffffffffffffffffffffffffffffffffff1614611b94576040517f08c379a0000000000000000000000000000000000000000000000000000000008152600401611b8b90612aeb565b60405180910390fd5b600160008373ffffffffffffffffffffffffffffffffffffffff1673ffffffffffffffffffffffffffffffffffffffff1681526020019081526020016000206040518060600160405290816000820160009054906101000a900460ff161515151581526020016000820160019054906101000a900460ff161515151581526020016001820154815250509050919050565b611c2d611fa6565b73ffffffffffffffffffffffffffffffffffffffff16611c4b610f47565b73ffffffffffffffffffffffffffffffffffffffff1614611ca1576040517f08c379a0000000000000000000000000000000000000000000000000000000008152600401611c9890612aeb565b60405180910390fd5b6000600580811115611cb657611cb56129ac565b5b600060149054906101000a900460ff166005811115611cd857611cd76129ac565b5b1415611ce5576000611d26565b6001600060149054906101000a900460ff166005811115611d0957611d086129ac565b5b611d139190612fd3565b6005811115611d2557611d246129ac565b5b5b90507f0a97a4ee45751e2abf3e4fc8946939630b11b371ea8ae39ccdc3056e98f5cc3f600060149054906101000a900460ff1682604051611d68929190613029565b60405180910390a180600060146101000a81548160ff02191690836005811115611d9557611d946129ac565b5b021790555050565b611da5611fa6565b73ffffffffffffffffffffffffffffffffffffffff16611dc3610f47565b73ffffffffffffffffffffffffffffffffffffffff1614611e19576040517f08c379a0000000000000000000000000000000000000000000000000000000008152600401611e1090612aeb565b60405180910390fd5b6002806005811115611e2e57611e2d6129ac565b5b600060149054906101000a900460ff166005811115611e5057611e4f6129ac565b5b14611e90576040517f08c379a0000000000000000000000000000000000000000000000000000000008152600401611e8790612b7d565b60405180910390fd5b611e98611c25565b50565b600060149054906101000a900460ff1681565b611eb6611fa6565b73ffffffffffffffffffffffffffffffffffffffff16611ed4610f47565b73ffffffffffffffffffffffffffffffffffffffff1614611f2a576040517f08c379a0000000000000000000000000000000000000000000000000000000008152600401611f2190612aeb565b60405180910390fd5b600073ffffffffffffffffffffffffffffffffffffffff168173ffffffffffffffffffffffffffffffffffffffff161415611f9a576040517f08c379a0000000000000000000000000000000000000000000000000000000008152600401611f91906130c4565b60405180910390fd5b611fa381611fae565b50565b600033905090565b60008060009054906101000a900473ffffffffffffffffffffffffffffffffffffffff169050816000806101000a81548173ffffffffffffffffffffffffffffffffffffffff021916908373ffffffffffffffffffffffffffffffffffffffff1602179055508173ffffffffffffffffffffffffffffffffffffffff168173ffffffffffffffffffffffffffffffffffffffff167f8be0079c531659141344cd1fd0a4f28419497f9722a3daafe3b4186f6b6457e060405160405180910390a35050565b50805460008255600202906000526020600020908101906120939190612162565b50565b50805460008255906000526020600020908101906120b49190612191565b50565b8280546120c390612a6d565b90600052602060002090601f0160209004810192826120e5576000855561212c565b82601f106120fe57805160ff191683800117855561212c565b8280016001018555821561212c579182015b8281111561212b578251825591602001919060010190612110565b5b5090506121399190612191565b5090565b6040518060600160405280600015158152602001600015158152602001600081525090565b5b8082111561218d576000808201600061217c91906121ae565b600182016000905550600201612163565b5090565b5b808211156121aa576000816000905550600101612192565b5090565b5080546121ba90612a6d565b6000825580601f106121cc57506121eb565b601f0160209004906000526020600020908101906121ea9190612191565b5b50565b6000604051905090565b600080fd5b600080fd5b6000819050919050565b61221581612202565b811461222057600080fd5b50565b6000813590506122328161220c565b92915050565b60006020828403121561224e5761224d6121f8565b5b600061225c84828501612223565b91505092915050565b600081519050919050565b600082825260208201905092915050565b60005b8381101561229f578082015181840152602081019050612284565b838111156122ae576000848401525b50505050565b6000601f19601f8301169050919050565b60006122d082612265565b6122da8185612270565b93506122ea818560208601612281565b6122f3816122b4565b840191505092915050565b61230781612202565b82525050565b6000604082019050818103600083015261232781856122c5565b905061233660208301846122fe565b9392505050565b600060208201905061235260008301846122fe565b92915050565b600080fd5b600080fd5b7f4e487b7100000000000000000000000000000000000000000000000000000000600052604160045260246000fd5b61239a826122b4565b810181811067ffffffffffffffff821117156123b9576123b8612362565b5b80604052505050565b60006123cc6121ee565b90506123d88282612391565b919050565b600067ffffffffffffffff8211156123f8576123f7612362565b5b612401826122b4565b9050602081019050919050565b82818337600083830152505050565b600061243061242b846123dd565b6123c2565b90508281526020810184848401111561244c5761244b61235d565b5b61245784828561240e565b509392505050565b600082601f83011261247457612473612358565b5b813561248484826020860161241d565b91505092915050565b6000602082840312156124a3576124a26121f8565b5b600082013567ffffffffffffffff8111156124c1576124c06121fd565b5b6124cd8482850161245f565b91505092915050565b600073ffffffffffffffffffffffffffffffffffffffff82169050919050565b6000612501826124d6565b9050919050565b612511816124f6565b811461251c57600080fd5b50565b60008135905061252e81612508565b92915050565b60006020828403121561254a576125496121f8565b5b60006125588482850161251f565b91505092915050565b600081519050919050565b600082825260208201905092915050565b6000819050602082019050919050565b600082825260208201905092915050565b60006125a982612265565b6125b3818561258d565b93506125c3818560208601612281565b6125cc816122b4565b840191505092915050565b6125e081612202565b82525050565b60006040830160008301518482036000860152612603828261259e565b915050602083015161261860208601826125d7565b508091505092915050565b600061262f83836125e6565b905092915050565b6000602082019050919050565b600061264f82612561565b612659818561256c565b93508360208202850161266b8561257d565b8060005b858110156126a757848403895281516126888582612623565b945061269383612637565b925060208a0199505060018101905061266f565b50829750879550505050505092915050565b600060208201905081810360008301526126d38184612644565b905092915050565b6126e4816124f6565b82525050565b60006020820190506126ff60008301846126db565b92915050565b600060608201905061271a60008301866122fe565b818103602083015261272c81856122c5565b905061273b60408301846122fe565b949350505050565b600067ffffffffffffffff82111561275e5761275d612362565b5b602082029050602081019050919050565b600080fd5b600061278761278284612743565b6123c2565b905080838252602082019050602084028301858111156127aa576127a961276f565b5b835b818110156127d357806127bf888261251f565b8452602084019350506020810190506127ac565b5050509392505050565b600082601f8301126127f2576127f1612358565b5b8135612802848260208601612774565b91505092915050565b600060208284031215612821576128206121f8565b5b600082013567ffffffffffffffff81111561283f5761283e6121fd565b5b61284b848285016127dd565b91505092915050565b600081519050919050565b600082825260208201905092915050565b6000819050602082019050919050565b612889816124f6565b82525050565b600061289b8383612880565b60208301905092915050565b6000602082019050919050565b60006128bf82612854565b6128c9818561285f565b93506128d483612870565b8060005b838110156129055781516128ec888261288f565b97506128f7836128a7565b9250506001810190506128d8565b5085935050505092915050565b6000602082019050818103600083015261292c81846128b4565b905092915050565b60008115159050919050565b61294981612934565b82525050565b6060820160008201516129656000850182612940565b5060208201516129786020850182612940565b50604082015161298b60408501826125d7565b50505050565b60006060820190506129a6600083018461294f565b92915050565b7f4e487b7100000000000000000000000000000000000000000000000000000000600052602160045260246000fd5b600681106129ec576129eb6129ac565b5b50565b60008190506129fd826129db565b919050565b6000612a0d826129ef565b9050919050565b612a1d81612a02565b82525050565b6000602082019050612a386000830184612a14565b92915050565b7f4e487b7100000000000000000000000000000000000000000000000000000000600052602260045260246000fd5b60006002820490506001821680612a8557607f821691505b60208210811415612a9957612a98612a3e565b5b50919050565b7f4f776e61626c653a2063616c6c6572206973206e6f7420746865206f776e6572600082015250565b6000612ad5602083612270565b9150612ae082612a9f565b602082019050919050565b60006020820190508181036000830152612b0481612ac8565b9050919050565b7f46756e6374696f6e2063616e6e6f742062652063616c6c65642061742074686960008201527f732074696d652e00000000000000000000000000000000000000000000000000602082015250565b6000612b67602783612270565b9150612b7282612b0b565b604082019050919050565b60006020820190508181036000830152612b9681612b5a565b9050919050565b7f4e487b7100000000000000000000000000000000000000000000000000000000600052603260045260246000fd5b7f4e487b7100000000000000000000000000000000000000000000000000000000600052601160045260246000fd5b6000612c0682612202565b91507fffffffffffffffffffffffffffffffffffffffffffffffffffffffffffffffff821415612c3957612c38612bcc565b5b600182019050919050565b7f596f75277265206e6f74207265676973747265642e0000000000000000000000600082015250565b6000612c7a601583612270565b9150612c8582612c44565b602082019050919050565b60006020820190508181036000830152612ca981612c6d565b9050919050565b7f416c7265616479207265676973746572656420696e207468652077686974656c60008201527f697374206d792064656172000000000000000000000000000000000000000000602082015250565b6000612d0c602b83612270565b9150612d1782612cb0565b604082019050919050565b60006020820190508181036000830152612d3b81612cff565b9050919050565b7f5468657265206973206e6f7420656e6f756768206164647265737320696e207460008201527f686520574c000000000000000000000000000000000000000000000000000000602082015250565b6000612d9e602583612270565b9150612da982612d42565b604082019050919050565b60006020820190508181036000830152612dcd81612d91565b9050919050565b7f4e6f7420656e6f7567682070726f706f736974696f6e20746f2073746172742060008201527f6120766f74650000000000000000000000000000000000000000000000000000602082015250565b6000612e30602683612270565b9150612e3b82612dd4565b604082019050919050565b60006020820190508181036000830152612e5f81612e23565b9050919050565b7f5765206e656564206174206c65617374206f6e6520766f746500000000000000600082015250565b6000612e9c601983612270565b9150612ea782612e66565b602082019050919050565b60006020820190508181036000830152612ecb81612e8f565b9050919050565b7f596f7520616c726561647920766f746564000000000000000000000000000000600082015250565b6000612f08601183612270565b9150612f1382612ed2565b602082019050919050565b60006020820190508181036000830152612f3781612efb565b9050919050565b7f50726f706f73616c2077697368656420646f65736e7420657869737400000000600082015250565b6000612f74601c83612270565b9150612f7f82612f3e565b602082019050919050565b60006020820190508181036000830152612fa381612f67565b9050919050565b6000604082019050612fbf60008301856126db565b612fcc60208301846122fe565b9392505050565b6000612fde82612202565b9150612fe983612202565b9250827fffffffffffffffffffffffffffffffffffffffffffffffffffffffffffffffff0382111561301e5761301d612bcc565b5b828201905092915050565b600060408201905061303e6000830185612a14565b61304b6020830184612a14565b9392505050565b7f4f776e61626c653a206e6577206f776e657220697320746865207a65726f206160008201527f6464726573730000000000000000000000000000000000000000000000000000602082015250565b60006130ae602683612270565b91506130b982613052565b604082019050919050565b600060208201905081810360008301526130dd816130a1565b905091905056fea26469706673582212200c3775f65e9939968ee1a352313ad8e972589841b6ebba4671a51ba4d6318f7b64736f6c634300080b0033",
  "immutableReferences": {},
  "source": "// SPDX-License-Identifier: MIT\r\npragma solidity 0.8.11;\r\n\r\n//import \"https://github.com/OpenZeppelin/openzeppelin-contracts/blob/master/contracts/access/Ownable.sol\";\r\nimport \"@openzeppelin/contracts/access/Ownable.sol\";\r\n\r\n/*\r\n    @admin : dploye le contrat\r\n    1) L'administrateur du vote enregistre une liste blanche d'lecteurs identifis par leur adresse Ethereum.\r\n    2) L'administrateur du vote commence la session d'enregistrement de la proposition.\r\n    3) Les lecteurs inscrits sont autoriss  enregistrer leurs propositions pendant que la session d'enregistrement est active.\r\n    4) L'administrateur de vote met fin  la session d'enregistrement des propositions.\r\n    5) L'administrateur du vote commence la session de vote.\r\n    6) Les lecteurs inscrits votent pour leurs propositions prfres.\r\n    7) L'administrateur du vote met fin  la session de vote.\r\n    8) L'administrateur du vote comptabilise les votes.\r\n    9) Tout le monde peut vrifier les derniers dtails de la proposition gagnante.\r\n*/\r\n\r\n/*\r\n\tTODO : \r\n\t- Ajouter SafeMath\r\n\t- Adress zero\r\n*/\r\n\r\n\r\ncontract Voting is Ownable{\r\n    struct Voter {\r\n        bool isRegistered;\r\n        bool hasVoted;\r\n        uint votedProposalId;\r\n    }\r\n\r\n    struct Proposal {\r\n        string description;\r\n        uint voteCount;\r\n    }\r\n   \r\n    enum WorkflowStatus {\r\n        RegisteringVoters,\r\n        ProposalsRegistrationStarted,\r\n        ProposalsRegistrationEnded,\r\n        VotingSessionStarted,\r\n        VotingSessionEnded,\r\n        VotesTallied\r\n    }\r\n\r\n    WorkflowStatus public wfStatus = WorkflowStatus.RegisteringVoters;\r\n    mapping (address => Voter) private comptesWL;\r\n    address[] public addressUsed;\r\n    Proposal[] public proposals;\r\n   \r\n    uint public winningProposalId;\r\n    uint public nbVote = 0;\r\n    uint public totalVoter = 0;    \r\n\r\n    event VoterRegistered(address voterAddress);\r\n    event WorkflowStatusChange(WorkflowStatus previousStatus, WorkflowStatus newStatus);\r\n    event ProposalRegistered(uint proposalId);\r\n    event Voted (address voter, uint proposalId);\r\n   \r\n    modifier atStage(WorkflowStatus _status) {\r\n        require(wfStatus == _status, \"Function cannot be called at this time.\");\r\n        _;\r\n    }\r\n\r\n    modifier senderRegistred(){\r\n        require(comptesWL[msg.sender].isRegistered, \"You're not registred.\");\r\n        _;\r\n    }\r\n\r\n    //constructor\r\n   \r\n    //fonctions\r\n    function nextStage() public onlyOwner {\r\n        //If we already are in Stage of VotesTallied, then it's a start over\r\n        WorkflowStatus newStatus = (wfStatus != WorkflowStatus.VotesTallied) ? WorkflowStatus(uint(wfStatus) + 1) : WorkflowStatus.RegisteringVoters;\r\n        emit WorkflowStatusChange(wfStatus,newStatus);\r\n        wfStatus = newStatus;\r\n    }\r\n\r\n    function getWhitelist() public view onlyOwner returns(address[] memory) {\r\n\t\treturn addressUsed;\r\n\t}\r\n\r\n    function getWhitelistedVoter(address _address) public view onlyOwner returns(Voter memory){\r\n        return comptesWL[_address];\r\n    }\r\n\r\n    function getProposalsList() public view returns(Proposal[] memory){\r\n        return proposals;\r\n    }\r\n\r\n\tfunction getTotalVoter() public view returns(uint){\r\n\t\treturn totalVoter;\r\n\t}\r\n\r\n    /*\r\n    *\r\n    *   1) L'administrateur du vote enregistre une liste blanche d'lecteurs identifis par leur adresse Ethereum.\r\n    *\r\n    */\r\n    function registeringUniqueAd(address _address) public onlyOwner atStage(WorkflowStatus.RegisteringVoters){\r\n        require(!comptesWL[_address].isRegistered,\"Already registered in the whitelist my dear\");\r\n        //Cration d'un Voter via Structure & Mj Whitelist address => struct\r\n       \r\n        comptesWL[_address].isRegistered = true;\r\n        addressUsed.push(_address);\r\n\t\t\r\n       \r\n        totalVoter++;\r\n        //Event lecteur enregistr\r\n        emit VoterRegistered(_address);\r\n    }\r\n\r\n    /*\r\n    *\r\n    *   1) L'administrateur du vote enregistre une liste blanche d'lecteurs identifis par leur adresse Ethereum.\r\n    *\r\n    */\r\n    function registeringWL(address[] memory arrayWL) public onlyOwner atStage(WorkflowStatus.RegisteringVoters){\r\n        for(uint i=0;i<arrayWL.length;i++){\r\n            if(!comptesWL[arrayWL[i]].isRegistered){\r\n                comptesWL[arrayWL[i]] = Voter(true,false,0);\r\n                addressUsed.push(arrayWL[i]);\r\n                totalVoter++;\r\n                emit VoterRegistered(arrayWL[i]);\r\n            }\r\n        }\r\n    }\r\n\r\n    /*\r\n    *\r\n    * 2) L'administrateur du vote commence la session d'enregistrement de la proposition.\r\n    *\r\n    */\r\n    function startingProposalSession() public onlyOwner atStage(WorkflowStatus.RegisteringVoters){\r\n        require(totalVoter > 0,\"There is not enough address in the WL\");\r\n        //WL termine, on passe  l'tape d'aps\r\n        nextStage();\r\n    }\r\n\r\n    /*\r\n    *\r\n    *   3) Les lecteurs inscrits sont autoriss  enregistrer leurs propositions pendant que la session d'enregistrement est active.\r\n    *\r\n    */\r\n    function registeringProposal(string memory _description) public atStage(WorkflowStatus.ProposalsRegistrationStarted) senderRegistred{\r\n        proposals.push(Proposal(_description,0));\r\n        emit ProposalRegistered(proposals.length);\r\n    }\r\n\r\n    /*\r\n    *\r\n    *   4) L'administrateur de vote met fin  la session d'enregistrement des propositions.\r\n    *\r\n    */\r\n    function endingProposalSession() public onlyOwner atStage(WorkflowStatus.ProposalsRegistrationStarted){\r\n        //Proposal session over but... do we have at least one vote ?\r\n        require(proposals.length >= 1,\"Not enough proposition to start a vote\");\r\n        nextStage();\r\n    }\r\n\r\n    /*\r\n    *\r\n    *   5) L'administrateur du vote commence la session de vote.\r\n    *\r\n    */\r\n    function startVotingSession() public onlyOwner atStage(WorkflowStatus.ProposalsRegistrationEnded){\r\n        nextStage();\r\n    }\r\n\r\n    /*\r\n    *\r\n    *   6) Les lecteurs inscrits votent pour leurs propositions prfres.\r\n    *\r\n    */\r\n    function votingFor(uint _proposalId) public atStage(WorkflowStatus.VotingSessionStarted) senderRegistred{\r\n        //N'a pas dj vot\r\n        require(!comptesWL[msg.sender].hasVoted,\"You already voted\");        \r\n        //Vote pour une propal existante\r\n        require(proposals.length >= _proposalId,\"Proposal wished doesnt exist\");\r\n\r\n        //Mise  jour du \" voter\"\r\n        comptesWL[msg.sender].hasVoted = true;\r\n        comptesWL[msg.sender].votedProposalId = _proposalId;\r\n\r\n        //Mise  jour du count de vote pour la proposition vote\r\n        proposals[_proposalId].voteCount++;\r\n        //Le nb de vote total augmente\r\n        nbVote++;\r\n       \r\n        if(proposals[_proposalId].voteCount > proposals[winningProposalId].voteCount){\r\n            winningProposalId = _proposalId;\r\n        }\r\n\r\n        //emit\r\n        emit Voted(msg.sender,_proposalId);\r\n    }\r\n\r\n\r\n    /*\r\n    *\r\n    *   7) L'administrateur du vote met fin  la session de vote.\r\n    *\r\n    */\r\n    function endVotingSession() public onlyOwner atStage(WorkflowStatus.VotingSessionStarted){\r\n        require(nbVote > 0,\"We need at least one vote\");\r\n       \r\n        nextStage();\r\n    }\r\n\r\n\r\n    /*\r\n    *\r\n    *   8) L'administrateur du vote comptabilise les votes.\r\n    *\r\n    */\r\n    function countVote() public onlyOwner atStage(WorkflowStatus.VotingSessionEnded){\r\n        /*uint maxCount=0;\r\n        for(uint i = 0;i<proposals.length;i++){\r\n            if(proposals[i].voteCount > maxCount){\r\n                maxCount = proposals[i].voteCount;\r\n                winningProposalId = i;\r\n            }\r\n        }*/\r\n        nextStage();\r\n    }\r\n\r\n    /*\r\n    *\r\n    *   9) Tout le monde peut vrifier les derniers dtails de la proposition gagnante.\r\n    *\r\n    */\r\n    function getWinner() public view atStage(WorkflowStatus.VotesTallied) returns(uint, string memory, uint){\r\n        return (winningProposalId,proposals[winningProposalId].description,proposals[winningProposalId].voteCount);\r\n    }\r\n/*\r\n    function getWinnerATester() public view atStage(WorkflowStatus.VotesTallied) returns(uint, Proposal){\r\n        return (winningProposalId,proposals[winningProposalId]);\r\n    }\r\n*/\r\n    /*\r\n    *   10) Rinitialise l'app de vote\r\n    */\r\n    function reInitStatus() public onlyOwner atStage(WorkflowStatus.VotesTallied) {\r\n        nextStage();\r\n       \r\n        //Re init la liste des proposals, la liste des WL, la winningProposal, le totalVoter etc.)\r\n        //array of proposal\r\n        delete proposals;\r\n        //mapping whitelist\r\n        for(uint i = 0;i<addressUsed.length;i++){\r\n            comptesWL[addressUsed[i]] = Voter(false,false,0);\r\n        }\r\n        //uint winningProposalId\r\n        winningProposalId = 0;\r\n        //uint totalVoter\r\n        totalVoter = 0;\r\n\t\t//array of addressUsed\r\n\t\tdelete addressUsed;\r\n    }\r\n\r\n}",
  "sourcePath": "D:\\Data\\Documents\\TruffleProjects\\Developpeur-Ethereum-Template\\6. Dapp\\Defi\\MyDapp\\contracts\\Voting.sol",
  "compiler": {
    "name": "solc",
    "version": "0.8.11+commit.d7f03943.Emscripten.clang"
  },
  "schemaVersion": "3.4.4",
  "updatedAt": "2022-03-01T15:34:13.689Z",
  "networkType": "ethereum",
  "devdoc": {
    "kind": "dev",
    "methods": {
      "owner()": {
        "details": "Returns the address of the current owner."
      },
      "renounceOwnership()": {
        "details": "Leaves the contract without owner. It will not be possible to call `onlyOwner` functions anymore. Can only be called by the current owner. NOTE: Renouncing ownership will leave the contract without an owner, thereby removing any functionality that is only available to the owner."
      },
      "transferOwnership(address)": {
        "details": "Transfers ownership of the contract to a new account (`newOwner`). Can only be called by the current owner."
      }
    },
    "version": 1
  },
  "userdoc": {
    "kind": "user",
    "methods": {},
    "version": 1
  }
}