{
  "contractName": "Voting",
  "abi": [
    {
      "anonymous": false,
      "inputs": [
        {
          "indexed": true,
          "internalType": "address",
          "name": "previousOwner",
          "type": "address"
        },
        {
          "indexed": true,
          "internalType": "address",
          "name": "newOwner",
          "type": "address"
        }
      ],
      "name": "OwnershipTransferred",
      "type": "event"
    },
    {
      "anonymous": false,
      "inputs": [
        {
          "indexed": false,
          "internalType": "uint256",
          "name": "proposalId",
          "type": "uint256"
        }
      ],
      "name": "ProposalRegistered",
      "type": "event"
    },
    {
      "anonymous": false,
      "inputs": [
        {
          "indexed": false,
          "internalType": "address",
          "name": "voter",
          "type": "address"
        },
        {
          "indexed": false,
          "internalType": "uint256",
          "name": "proposalId",
          "type": "uint256"
        }
      ],
      "name": "Voted",
      "type": "event"
    },
    {
      "anonymous": false,
      "inputs": [
        {
          "indexed": false,
          "internalType": "address",
          "name": "voterAddress",
          "type": "address"
        }
      ],
      "name": "VoterRegistered",
      "type": "event"
    },
    {
      "anonymous": false,
      "inputs": [
        {
          "indexed": false,
          "internalType": "enum Voting.WorkflowStatus",
          "name": "previousStatus",
          "type": "uint8"
        },
        {
          "indexed": false,
          "internalType": "enum Voting.WorkflowStatus",
          "name": "newStatus",
          "type": "uint8"
        }
      ],
      "name": "WorkflowStatusChange",
      "type": "event"
    },
    {
      "inputs": [
        {
          "internalType": "uint256",
          "name": "",
          "type": "uint256"
        }
      ],
      "name": "addressUsed",
      "outputs": [
        {
          "internalType": "address",
          "name": "",
          "type": "address"
        }
      ],
      "stateMutability": "view",
      "type": "function"
    },
    {
      "inputs": [],
      "name": "nbVote",
      "outputs": [
        {
          "internalType": "uint256",
          "name": "",
          "type": "uint256"
        }
      ],
      "stateMutability": "view",
      "type": "function"
    },
    {
      "inputs": [],
      "name": "owner",
      "outputs": [
        {
          "internalType": "address",
          "name": "",
          "type": "address"
        }
      ],
      "stateMutability": "view",
      "type": "function"
    },
    {
      "inputs": [
        {
          "internalType": "uint256",
          "name": "",
          "type": "uint256"
        }
      ],
      "name": "proposals",
      "outputs": [
        {
          "internalType": "string",
          "name": "description",
          "type": "string"
        },
        {
          "internalType": "uint256",
          "name": "voteCount",
          "type": "uint256"
        }
      ],
      "stateMutability": "view",
      "type": "function"
    },
    {
      "inputs": [],
      "name": "renounceOwnership",
      "outputs": [],
      "stateMutability": "nonpayable",
      "type": "function"
    },
    {
      "inputs": [],
      "name": "totalVoter",
      "outputs": [
        {
          "internalType": "uint256",
          "name": "",
          "type": "uint256"
        }
      ],
      "stateMutability": "view",
      "type": "function"
    },
    {
      "inputs": [
        {
          "internalType": "address",
          "name": "newOwner",
          "type": "address"
        }
      ],
      "name": "transferOwnership",
      "outputs": [],
      "stateMutability": "nonpayable",
      "type": "function"
    },
    {
      "inputs": [],
      "name": "wfStatus",
      "outputs": [
        {
          "internalType": "enum Voting.WorkflowStatus",
          "name": "",
          "type": "uint8"
        }
      ],
      "stateMutability": "view",
      "type": "function"
    },
    {
      "inputs": [],
      "name": "winningProposalId",
      "outputs": [
        {
          "internalType": "uint256",
          "name": "",
          "type": "uint256"
        }
      ],
      "stateMutability": "view",
      "type": "function"
    },
    {
      "inputs": [],
      "name": "nextStage",
      "outputs": [],
      "stateMutability": "nonpayable",
      "type": "function"
    },
    {
      "inputs": [],
      "name": "getWhitelist",
      "outputs": [
        {
          "internalType": "address[]",
          "name": "",
          "type": "address[]"
        }
      ],
      "stateMutability": "view",
      "type": "function"
    },
    {
      "inputs": [],
      "name": "getProposalsList",
      "outputs": [
        {
          "components": [
            {
              "internalType": "string",
              "name": "description",
              "type": "string"
            },
            {
              "internalType": "uint256",
              "name": "voteCount",
              "type": "uint256"
            }
          ],
          "internalType": "struct Voting.Proposal[]",
          "name": "",
          "type": "tuple[]"
        }
      ],
      "stateMutability": "view",
      "type": "function"
    },
    {
      "inputs": [
        {
          "internalType": "address",
          "name": "_address",
          "type": "address"
        }
      ],
      "name": "registeringUniqueAd",
      "outputs": [],
      "stateMutability": "nonpayable",
      "type": "function"
    },
    {
      "inputs": [
        {
          "internalType": "address[]",
          "name": "arrayWL",
          "type": "address[]"
        }
      ],
      "name": "registeringWL",
      "outputs": [],
      "stateMutability": "nonpayable",
      "type": "function"
    },
    {
      "inputs": [],
      "name": "startingProposalSession",
      "outputs": [],
      "stateMutability": "nonpayable",
      "type": "function"
    },
    {
      "inputs": [
        {
          "internalType": "string",
          "name": "_description",
          "type": "string"
        }
      ],
      "name": "registeringProposal",
      "outputs": [],
      "stateMutability": "nonpayable",
      "type": "function"
    },
    {
      "inputs": [],
      "name": "endingProposalSession",
      "outputs": [],
      "stateMutability": "nonpayable",
      "type": "function"
    },
    {
      "inputs": [],
      "name": "startVotingSession",
      "outputs": [],
      "stateMutability": "nonpayable",
      "type": "function"
    },
    {
      "inputs": [
        {
          "internalType": "uint256",
          "name": "_proposalId",
          "type": "uint256"
        }
      ],
      "name": "votingFor",
      "outputs": [],
      "stateMutability": "nonpayable",
      "type": "function"
    },
    {
      "inputs": [],
      "name": "endVotingSession",
      "outputs": [],
      "stateMutability": "nonpayable",
      "type": "function"
    },
    {
      "inputs": [],
      "name": "countVote",
      "outputs": [],
      "stateMutability": "nonpayable",
      "type": "function"
    },
    {
      "inputs": [],
      "name": "getWinner",
      "outputs": [
        {
          "internalType": "uint256",
          "name": "",
          "type": "uint256"
        },
        {
          "internalType": "string",
          "name": "",
          "type": "string"
        },
        {
          "internalType": "uint256",
          "name": "",
          "type": "uint256"
        }
      ],
      "stateMutability": "view",
      "type": "function"
    },
    {
      "inputs": [],
      "name": "reInitStatus",
      "outputs": [],
      "stateMutability": "nonpayable",
      "type": "function"
    }
  ],
  "bytecode": "0x608060405260008060146101000a81548160ff021916908360058111156200002c576200002b6200013b565b5b0217905550600060055560006006553480156200004857600080fd5b50620000696200005d6200006f60201b60201c565b6200007760201b60201c565b6200016a565b600033905090565b60008060009054906101000a900473ffffffffffffffffffffffffffffffffffffffff169050816000806101000a81548173ffffffffffffffffffffffffffffffffffffffff021916908373ffffffffffffffffffffffffffffffffffffffff1602179055508173ffffffffffffffffffffffffffffffffffffffff168173ffffffffffffffffffffffffffffffffffffffff167f8be0079c531659141344cd1fd0a4f28419497f9722a3daafe3b4186f6b6457e060405160405180910390a35050565b7f4e487b7100000000000000000000000000000000000000000000000000000000600052602160045260246000fd5b612ebb806200017a6000396000f3fe608060405234801561001057600080fd5b506004361061014d5760003560e01c80638da5cb5b116100c3578063d01f63f51161007c578063d01f63f5146102f9578063e817834814610317578063ee3743ab14610333578063ee74c6781461033d578063eea24be014610347578063f2fde38b146103655761014d565b80638da5cb5b1461026d5780638e7ea5b21461028b57806390b8a0d5146102ab578063a3d22a56146102b5578063a7bfab16146102d1578063c64963c5146102db5761014d565b80634f621816116101155780634f621816146101cf578063578178c0146101d95780635d738fb7146101f75780636332abc914610227578063715018a61461024557806372f24fc11461024f5761014d565b8063013cf08b1461015257806304cc2ed6146101835780631a6cd2fd1461018d57806326e3233d146101975780632736f7e8146101b3575b600080fd5b61016c60048036038101906101679190612051565b610381565b60405161017a929190612126565b60405180910390f35b61018b61043d565b005b610195610669565b005b6101b160048036038101906101ac919061228b565b610767565b005b6101cd60048036038101906101c89190612332565b610917565b005b6101d7610baa565b005b6101e1610ced565b6040516101ee91906124b7565b60405180910390f35b610211600480360381019061020c9190612051565b610de8565b60405161021e91906124e8565b60405180910390f35b61022f610e27565b60405161023c9190612503565b60405180910390f35b61024d610e2d565b005b610257610eb5565b6040516102649190612503565b60405180910390f35b610275610ebb565b60405161028291906124e8565b60405180910390f35b610293610ee4565b6040516102a29392919061251e565b60405180910390f35b6102b361104b565b005b6102cf60048036038101906102ca9190612624565b611192565b005b6102d96114c6565b005b6102e3611609565b6040516102f09190612503565b60405180910390f35b61030161160f565b60405161030e919061272b565b60405180910390f35b610331600480360381019061032c9190612051565b611719565b005b61033b611a84565b005b610345611bfc565b005b61034f611cfa565b60405161035c91906127c4565b60405180910390f35b61037f600480360381019061037a9190612332565b611d0d565b005b6003818154811061039157600080fd5b90600052602060002090600202016000915090508060000180546103b49061280e565b80601f01602080910402602001604051908101604052809291908181526020018280546103e09061280e565b801561042d5780601f106104025761010080835404028352916020019161042d565b820191906000526020600020905b81548152906001019060200180831161041057829003601f168201915b5050505050908060010154905082565b610445611e05565b73ffffffffffffffffffffffffffffffffffffffff16610463610ebb565b73ffffffffffffffffffffffffffffffffffffffff16146104b9576040517f08c379a00000000000000000000000000000000000000000000000000000000081526004016104b09061288c565b60405180910390fd5b60058060058111156104ce576104cd61274d565b5b600060149054906101000a900460ff1660058111156104f0576104ef61274d565b5b14610530576040517f08c379a00000000000000000000000000000000000000000000000000000000081526004016105279061291e565b60405180910390fd5b610538611a84565b600360006105469190611ed1565b60005b600280549050811015610655576040518060600160405280600015158152602001600015158152602001600081525060016000600284815481106105905761058f61293e565b5b9060005260206000200160009054906101000a900473ffffffffffffffffffffffffffffffffffffffff1673ffffffffffffffffffffffffffffffffffffffff1673ffffffffffffffffffffffffffffffffffffffff16815260200190815260200160002060008201518160000160006101000a81548160ff02191690831515021790555060208201518160000160016101000a81548160ff02191690831515021790555060408201518160010155905050808061064d9061299c565b915050610549565b506000600481905550600060068190555050565b610671611e05565b73ffffffffffffffffffffffffffffffffffffffff1661068f610ebb565b73ffffffffffffffffffffffffffffffffffffffff16146106e5576040517f08c379a00000000000000000000000000000000000000000000000000000000081526004016106dc9061288c565b60405180910390fd5b60048060058111156106fa576106f961274d565b5b600060149054906101000a900460ff16600581111561071c5761071b61274d565b5b1461075c576040517f08c379a00000000000000000000000000000000000000000000000000000000081526004016107539061291e565b60405180910390fd5b610764611a84565b50565b600180600581111561077c5761077b61274d565b5b600060149054906101000a900460ff16600581111561079e5761079d61274d565b5b146107de576040517f08c379a00000000000000000000000000000000000000000000000000000000081526004016107d59061291e565b60405180910390fd5b600160003373ffffffffffffffffffffffffffffffffffffffff1673ffffffffffffffffffffffffffffffffffffffff16815260200190815260200160002060000160009054906101000a900460ff1661086d576040517f08c379a000000000000000000000000000000000000000000000000000000000815260040161086490612a31565b60405180910390fd5b600360405180604001604052808481526020016000815250908060018154018082558091505060019003906000526020600020906002020160009091909190915060008201518160000190805190602001906108ca929190611ef5565b506020820151816001015550507f92e393e9b54e2f801d3ea4beb0c5e71a21cc34a5d34b77d0fb8a3aa1650dc18f60038054905060405161090b9190612503565b60405180910390a15050565b61091f611e05565b73ffffffffffffffffffffffffffffffffffffffff1661093d610ebb565b73ffffffffffffffffffffffffffffffffffffffff1614610993576040517f08c379a000000000000000000000000000000000000000000000000000000000815260040161098a9061288c565b60405180910390fd5b60008060058111156109a8576109a761274d565b5b600060149054906101000a900460ff1660058111156109ca576109c961274d565b5b14610a0a576040517f08c379a0000000000000000000000000000000000000000000000000000000008152600401610a019061291e565b60405180910390fd5b600160008373ffffffffffffffffffffffffffffffffffffffff1673ffffffffffffffffffffffffffffffffffffffff16815260200190815260200160002060000160009054906101000a900460ff1615610a9a576040517f08c379a0000000000000000000000000000000000000000000000000000000008152600401610a9190612ac3565b60405180910390fd5b60018060008473ffffffffffffffffffffffffffffffffffffffff1673ffffffffffffffffffffffffffffffffffffffff16815260200190815260200160002060000160006101000a81548160ff0219169083151502179055506002829080600181540180825580915050600190039060005260206000200160009091909190916101000a81548173ffffffffffffffffffffffffffffffffffffffff021916908373ffffffffffffffffffffffffffffffffffffffff16021790555060066000815480929190610b6a9061299c565b91905055507fb6be2187d059cc2a55fe29e0e503b566e1e0f8c8780096e185429350acffd3dd82604051610b9e91906124e8565b60405180910390a15050565b610bb2611e05565b73ffffffffffffffffffffffffffffffffffffffff16610bd0610ebb565b73ffffffffffffffffffffffffffffffffffffffff1614610c26576040517f08c379a0000000000000000000000000000000000000000000000000000000008152600401610c1d9061288c565b60405180910390fd5b6000806005811115610c3b57610c3a61274d565b5b600060149054906101000a900460ff166005811115610c5d57610c5c61274d565b5b14610c9d576040517f08c379a0000000000000000000000000000000000000000000000000000000008152600401610c949061291e565b60405180910390fd5b600060065411610ce2576040517f08c379a0000000000000000000000000000000000000000000000000000000008152600401610cd990612b55565b60405180910390fd5b610cea611a84565b50565b60606003805480602002602001604051908101604052809291908181526020016000905b82821015610ddf5783829060005260206000209060020201604051806040016040529081600082018054610d449061280e565b80601f0160208091040260200160405190810160405280929190818152602001828054610d709061280e565b8015610dbd5780601f10610d9257610100808354040283529160200191610dbd565b820191906000526020600020905b815481529060010190602001808311610da057829003601f168201915b5050505050815260200160018201548152505081526020019060010190610d11565b50505050905090565b60028181548110610df857600080fd5b906000526020600020016000915054906101000a900473ffffffffffffffffffffffffffffffffffffffff1681565b60065481565b610e35611e05565b73ffffffffffffffffffffffffffffffffffffffff16610e53610ebb565b73ffffffffffffffffffffffffffffffffffffffff1614610ea9576040517f08c379a0000000000000000000000000000000000000000000000000000000008152600401610ea09061288c565b60405180910390fd5b610eb36000611e0d565b565b60055481565b60008060009054906101000a900473ffffffffffffffffffffffffffffffffffffffff16905090565b6000606060006005806005811115610eff57610efe61274d565b5b600060149054906101000a900460ff166005811115610f2157610f2061274d565b5b14610f61576040517f08c379a0000000000000000000000000000000000000000000000000000000008152600401610f589061291e565b60405180910390fd5b600454600360045481548110610f7a57610f7961293e565b5b9060005260206000209060020201600001600360045481548110610fa157610fa061293e565b5b906000526020600020906002020160010154818054610fbf9061280e565b80601f0160208091040260200160405190810160405280929190818152602001828054610feb9061280e565b80156110385780601f1061100d57610100808354040283529160200191611038565b820191906000526020600020905b81548152906001019060200180831161101b57829003601f168201915b5050505050915093509350935050909192565b611053611e05565b73ffffffffffffffffffffffffffffffffffffffff16611071610ebb565b73ffffffffffffffffffffffffffffffffffffffff16146110c7576040517f08c379a00000000000000000000000000000000000000000000000000000000081526004016110be9061288c565b60405180910390fd5b60018060058111156110dc576110db61274d565b5b600060149054906101000a900460ff1660058111156110fe576110fd61274d565b5b1461113e576040517f08c379a00000000000000000000000000000000000000000000000000000000081526004016111359061291e565b60405180910390fd5b60016003805490501015611187576040517f08c379a000000000000000000000000000000000000000000000000000000000815260040161117e90612be7565b60405180910390fd5b61118f611a84565b50565b61119a611e05565b73ffffffffffffffffffffffffffffffffffffffff166111b8610ebb565b73ffffffffffffffffffffffffffffffffffffffff161461120e576040517f08c379a00000000000000000000000000000000000000000000000000000000081526004016112059061288c565b60405180910390fd5b60008060058111156112235761122261274d565b5b600060149054906101000a900460ff1660058111156112455761124461274d565b5b14611285576040517f08c379a000000000000000000000000000000000000000000000000000000000815260040161127c9061291e565b60405180910390fd5b60005b82518110156114c157600160008483815181106112a8576112a761293e565b5b602002602001015173ffffffffffffffffffffffffffffffffffffffff1673ffffffffffffffffffffffffffffffffffffffff16815260200190815260200160002060000160009054906101000a900460ff166114ae5760405180606001604052806001151581526020016000151581526020016000815250600160008584815181106113385761133761293e565b5b602002602001015173ffffffffffffffffffffffffffffffffffffffff1673ffffffffffffffffffffffffffffffffffffffff16815260200190815260200160002060008201518160000160006101000a81548160ff02191690831515021790555060208201518160000160016101000a81548160ff0219169083151502179055506040820151816001015590505060028382815181106113dc576113db61293e565b5b60200260200101519080600181540180825580915050600190039060005260206000200160009091909190916101000a81548173ffffffffffffffffffffffffffffffffffffffff021916908373ffffffffffffffffffffffffffffffffffffffff160217905550600660008154809291906114579061299c565b91905055507fb6be2187d059cc2a55fe29e0e503b566e1e0f8c8780096e185429350acffd3dd8382815181106114905761148f61293e565b5b60200260200101516040516114a591906124e8565b60405180910390a15b80806114b99061299c565b915050611288565b505050565b6114ce611e05565b73ffffffffffffffffffffffffffffffffffffffff166114ec610ebb565b73ffffffffffffffffffffffffffffffffffffffff1614611542576040517f08c379a00000000000000000000000000000000000000000000000000000000081526004016115399061288c565b60405180910390fd5b60038060058111156115575761155661274d565b5b600060149054906101000a900460ff1660058111156115795761157861274d565b5b146115b9576040517f08c379a00000000000000000000000000000000000000000000000000000000081526004016115b09061291e565b60405180910390fd5b6000600554116115fe576040517f08c379a00000000000000000000000000000000000000000000000000000000081526004016115f590612c53565b60405180910390fd5b611606611a84565b50565b60045481565b6060611619611e05565b73ffffffffffffffffffffffffffffffffffffffff16611637610ebb565b73ffffffffffffffffffffffffffffffffffffffff161461168d576040517f08c379a00000000000000000000000000000000000000000000000000000000081526004016116849061288c565b60405180910390fd5b600280548060200260200160405190810160405280929190818152602001828054801561170f57602002820191906000526020600020905b8160009054906101000a900473ffffffffffffffffffffffffffffffffffffffff1673ffffffffffffffffffffffffffffffffffffffff16815260200190600101908083116116c5575b5050505050905090565b600380600581111561172e5761172d61274d565b5b600060149054906101000a900460ff1660058111156117505761174f61274d565b5b14611790576040517f08c379a00000000000000000000000000000000000000000000000000000000081526004016117879061291e565b60405180910390fd5b600160003373ffffffffffffffffffffffffffffffffffffffff1673ffffffffffffffffffffffffffffffffffffffff16815260200190815260200160002060000160009054906101000a900460ff1661181f576040517f08c379a000000000000000000000000000000000000000000000000000000000815260040161181690612a31565b60405180910390fd5b600160003373ffffffffffffffffffffffffffffffffffffffff1673ffffffffffffffffffffffffffffffffffffffff16815260200190815260200160002060000160019054906101000a900460ff16156118af576040517f08c379a00000000000000000000000000000000000000000000000000000000081526004016118a690612cbf565b60405180910390fd5b8160038054905010156118f7576040517f08c379a00000000000000000000000000000000000000000000000000000000081526004016118ee90612d2b565b60405180910390fd5b60018060003373ffffffffffffffffffffffffffffffffffffffff1673ffffffffffffffffffffffffffffffffffffffff16815260200190815260200160002060000160016101000a81548160ff02191690831515021790555081600160003373ffffffffffffffffffffffffffffffffffffffff1673ffffffffffffffffffffffffffffffffffffffff16815260200190815260200160002060010181905550600382815481106119ac576119ab61293e565b5b906000526020600020906002020160010160008154809291906119ce9061299c565b9190505550600560008154809291906119e69061299c565b9190505550600360045481548110611a0157611a0061293e565b5b90600052602060002090600202016001015460038381548110611a2757611a2661293e565b5b9060005260206000209060020201600101541115611a4757816004819055505b7f4d99b957a2bc29a30ebd96a7be8e68fe50a3c701db28a91436490b7d53870ca43383604051611a78929190612d4b565b60405180910390a15050565b611a8c611e05565b73ffffffffffffffffffffffffffffffffffffffff16611aaa610ebb565b73ffffffffffffffffffffffffffffffffffffffff1614611b00576040517f08c379a0000000000000000000000000000000000000000000000000000000008152600401611af79061288c565b60405180910390fd5b6000600580811115611b1557611b1461274d565b5b600060149054906101000a900460ff166005811115611b3757611b3661274d565b5b1415611b44576000611b85565b6001600060149054906101000a900460ff166005811115611b6857611b6761274d565b5b611b729190612d74565b6005811115611b8457611b8361274d565b5b5b90507f0a97a4ee45751e2abf3e4fc8946939630b11b371ea8ae39ccdc3056e98f5cc3f600060149054906101000a900460ff1682604051611bc7929190612dca565b60405180910390a180600060146101000a81548160ff02191690836005811115611bf457611bf361274d565b5b021790555050565b611c04611e05565b73ffffffffffffffffffffffffffffffffffffffff16611c22610ebb565b73ffffffffffffffffffffffffffffffffffffffff1614611c78576040517f08c379a0000000000000000000000000000000000000000000000000000000008152600401611c6f9061288c565b60405180910390fd5b6002806005811115611c8d57611c8c61274d565b5b600060149054906101000a900460ff166005811115611caf57611cae61274d565b5b14611cef576040517f08c379a0000000000000000000000000000000000000000000000000000000008152600401611ce69061291e565b60405180910390fd5b611cf7611a84565b50565b600060149054906101000a900460ff1681565b611d15611e05565b73ffffffffffffffffffffffffffffffffffffffff16611d33610ebb565b73ffffffffffffffffffffffffffffffffffffffff1614611d89576040517f08c379a0000000000000000000000000000000000000000000000000000000008152600401611d809061288c565b60405180910390fd5b600073ffffffffffffffffffffffffffffffffffffffff168173ffffffffffffffffffffffffffffffffffffffff161415611df9576040517f08c379a0000000000000000000000000000000000000000000000000000000008152600401611df090612e65565b60405180910390fd5b611e0281611e0d565b50565b600033905090565b60008060009054906101000a900473ffffffffffffffffffffffffffffffffffffffff169050816000806101000a81548173ffffffffffffffffffffffffffffffffffffffff021916908373ffffffffffffffffffffffffffffffffffffffff1602179055508173ffffffffffffffffffffffffffffffffffffffff168173ffffffffffffffffffffffffffffffffffffffff167f8be0079c531659141344cd1fd0a4f28419497f9722a3daafe3b4186f6b6457e060405160405180910390a35050565b5080546000825560020290600052602060002090810190611ef29190611f7b565b50565b828054611f019061280e565b90600052602060002090601f016020900481019282611f235760008555611f6a565b82601f10611f3c57805160ff1916838001178555611f6a565b82800160010185558215611f6a579182015b82811115611f69578251825591602001919060010190611f4e565b5b509050611f779190611faa565b5090565b5b80821115611fa65760008082016000611f959190611fc7565b600182016000905550600201611f7c565b5090565b5b80821115611fc3576000816000905550600101611fab565b5090565b508054611fd39061280e565b6000825580601f10611fe55750612004565b601f0160209004906000526020600020908101906120039190611faa565b5b50565b6000604051905090565b600080fd5b600080fd5b6000819050919050565b61202e8161201b565b811461203957600080fd5b50565b60008135905061204b81612025565b92915050565b60006020828403121561206757612066612011565b5b60006120758482850161203c565b91505092915050565b600081519050919050565b600082825260208201905092915050565b60005b838110156120b857808201518184015260208101905061209d565b838111156120c7576000848401525b50505050565b6000601f19601f8301169050919050565b60006120e98261207e565b6120f38185612089565b935061210381856020860161209a565b61210c816120cd565b840191505092915050565b6121208161201b565b82525050565b6000604082019050818103600083015261214081856120de565b905061214f6020830184612117565b9392505050565b600080fd5b600080fd5b7f4e487b7100000000000000000000000000000000000000000000000000000000600052604160045260246000fd5b612198826120cd565b810181811067ffffffffffffffff821117156121b7576121b6612160565b5b80604052505050565b60006121ca612007565b90506121d6828261218f565b919050565b600067ffffffffffffffff8211156121f6576121f5612160565b5b6121ff826120cd565b9050602081019050919050565b82818337600083830152505050565b600061222e612229846121db565b6121c0565b90508281526020810184848401111561224a5761224961215b565b5b61225584828561220c565b509392505050565b600082601f83011261227257612271612156565b5b813561228284826020860161221b565b91505092915050565b6000602082840312156122a1576122a0612011565b5b600082013567ffffffffffffffff8111156122bf576122be612016565b5b6122cb8482850161225d565b91505092915050565b600073ffffffffffffffffffffffffffffffffffffffff82169050919050565b60006122ff826122d4565b9050919050565b61230f816122f4565b811461231a57600080fd5b50565b60008135905061232c81612306565b92915050565b60006020828403121561234857612347612011565b5b60006123568482850161231d565b91505092915050565b600081519050919050565b600082825260208201905092915050565b6000819050602082019050919050565b600082825260208201905092915050565b60006123a78261207e565b6123b1818561238b565b93506123c181856020860161209a565b6123ca816120cd565b840191505092915050565b6123de8161201b565b82525050565b60006040830160008301518482036000860152612401828261239c565b915050602083015161241660208601826123d5565b508091505092915050565b600061242d83836123e4565b905092915050565b6000602082019050919050565b600061244d8261235f565b612457818561236a565b9350836020820285016124698561237b565b8060005b858110156124a557848403895281516124868582612421565b945061249183612435565b925060208a0199505060018101905061246d565b50829750879550505050505092915050565b600060208201905081810360008301526124d18184612442565b905092915050565b6124e2816122f4565b82525050565b60006020820190506124fd60008301846124d9565b92915050565b60006020820190506125186000830184612117565b92915050565b60006060820190506125336000830186612117565b818103602083015261254581856120de565b90506125546040830184612117565b949350505050565b600067ffffffffffffffff82111561257757612576612160565b5b602082029050602081019050919050565b600080fd5b60006125a061259b8461255c565b6121c0565b905080838252602082019050602084028301858111156125c3576125c2612588565b5b835b818110156125ec57806125d8888261231d565b8452602084019350506020810190506125c5565b5050509392505050565b600082601f83011261260b5761260a612156565b5b813561261b84826020860161258d565b91505092915050565b60006020828403121561263a57612639612011565b5b600082013567ffffffffffffffff81111561265857612657612016565b5b612664848285016125f6565b91505092915050565b600081519050919050565b600082825260208201905092915050565b6000819050602082019050919050565b6126a2816122f4565b82525050565b60006126b48383612699565b60208301905092915050565b6000602082019050919050565b60006126d88261266d565b6126e28185612678565b93506126ed83612689565b8060005b8381101561271e57815161270588826126a8565b9750612710836126c0565b9250506001810190506126f1565b5085935050505092915050565b6000602082019050818103600083015261274581846126cd565b905092915050565b7f4e487b7100000000000000000000000000000000000000000000000000000000600052602160045260246000fd5b6006811061278d5761278c61274d565b5b50565b600081905061279e8261277c565b919050565b60006127ae82612790565b9050919050565b6127be816127a3565b82525050565b60006020820190506127d960008301846127b5565b92915050565b7f4e487b7100000000000000000000000000000000000000000000000000000000600052602260045260246000fd5b6000600282049050600182168061282657607f821691505b6020821081141561283a576128396127df565b5b50919050565b7f4f776e61626c653a2063616c6c6572206973206e6f7420746865206f776e6572600082015250565b6000612876602083612089565b915061288182612840565b602082019050919050565b600060208201905081810360008301526128a581612869565b9050919050565b7f46756e6374696f6e2063616e6e6f742062652063616c6c65642061742074686960008201527f732074696d652e00000000000000000000000000000000000000000000000000602082015250565b6000612908602783612089565b9150612913826128ac565b604082019050919050565b60006020820190508181036000830152612937816128fb565b9050919050565b7f4e487b7100000000000000000000000000000000000000000000000000000000600052603260045260246000fd5b7f4e487b7100000000000000000000000000000000000000000000000000000000600052601160045260246000fd5b60006129a78261201b565b91507fffffffffffffffffffffffffffffffffffffffffffffffffffffffffffffffff8214156129da576129d961296d565b5b600182019050919050565b7f596f75277265206e6f74207265676973747265642e0000000000000000000000600082015250565b6000612a1b601583612089565b9150612a26826129e5565b602082019050919050565b60006020820190508181036000830152612a4a81612a0e565b9050919050565b7f416c7265616479207265676973746572656420696e207468652077686974656c60008201527f697374206d792064656172000000000000000000000000000000000000000000602082015250565b6000612aad602b83612089565b9150612ab882612a51565b604082019050919050565b60006020820190508181036000830152612adc81612aa0565b9050919050565b7f5468657265206973206e6f7420656e6f756768206164647265737320696e207460008201527f686520574c000000000000000000000000000000000000000000000000000000602082015250565b6000612b3f602583612089565b9150612b4a82612ae3565b604082019050919050565b60006020820190508181036000830152612b6e81612b32565b9050919050565b7f4e6f7420656e6f7567682070726f706f736974696f6e20746f2073746172742060008201527f6120766f74650000000000000000000000000000000000000000000000000000602082015250565b6000612bd1602683612089565b9150612bdc82612b75565b604082019050919050565b60006020820190508181036000830152612c0081612bc4565b9050919050565b7f5765206e656564206174206c65617374206f6e6520766f746500000000000000600082015250565b6000612c3d601983612089565b9150612c4882612c07565b602082019050919050565b60006020820190508181036000830152612c6c81612c30565b9050919050565b7f596f7520616c726561647920766f746564000000000000000000000000000000600082015250565b6000612ca9601183612089565b9150612cb482612c73565b602082019050919050565b60006020820190508181036000830152612cd881612c9c565b9050919050565b7f50726f706f73616c2077697368656420646f65736e7420657869737400000000600082015250565b6000612d15601c83612089565b9150612d2082612cdf565b602082019050919050565b60006020820190508181036000830152612d4481612d08565b9050919050565b6000604082019050612d6060008301856124d9565b612d6d6020830184612117565b9392505050565b6000612d7f8261201b565b9150612d8a8361201b565b9250827fffffffffffffffffffffffffffffffffffffffffffffffffffffffffffffffff03821115612dbf57612dbe61296d565b5b828201905092915050565b6000604082019050612ddf60008301856127b5565b612dec60208301846127b5565b9392505050565b7f4f776e61626c653a206e6577206f776e657220697320746865207a65726f206160008201527f6464726573730000000000000000000000000000000000000000000000000000602082015250565b6000612e4f602683612089565b9150612e5a82612df3565b604082019050919050565b60006020820190508181036000830152612e7e81612e42565b905091905056fea2646970667358221220736031952d1c98c56711e6e97c5473f2cdb4c05aadc518eae552d69628352cff64736f6c634300080b0033",
  "immutableReferences": {},
  "source": "// SPDX-License-Identifier: MIT\r\npragma solidity 0.8.11;\r\n\r\n//import \"https://github.com/OpenZeppelin/openzeppelin-contracts/blob/master/contracts/access/Ownable.sol\";\r\nimport \"@openzeppelin/contracts/access/Ownable.sol\";\r\n\r\n/*\r\n    @admin : dploye le contrat\r\n    1) L'administrateur du vote enregistre une liste blanche d'lecteurs identifis par leur adresse Ethereum.\r\n    2) L'administrateur du vote commence la session d'enregistrement de la proposition.\r\n    3) Les lecteurs inscrits sont autoriss  enregistrer leurs propositions pendant que la session d'enregistrement est active.\r\n    4) L'administrateur de vote met fin  la session d'enregistrement des propositions.\r\n    5) L'administrateur du vote commence la session de vote.\r\n    6) Les lecteurs inscrits votent pour leurs propositions prfres.\r\n    7) L'administrateur du vote met fin  la session de vote.\r\n    8) L'administrateur du vote comptabilise les votes.\r\n    9) Tout le monde peut vrifier les derniers dtails de la proposition gagnante.\r\n*/\r\n\r\n/*\r\n\tTODO : \r\n\t- Ajouter SafeMath\r\n\t- Adress zero\r\n*/\r\n\r\n\r\ncontract Voting is Ownable{\r\n    struct Voter {\r\n        bool isRegistered;\r\n        bool hasVoted;\r\n        uint votedProposalId;\r\n    }\r\n\r\n    struct Proposal {\r\n        string description;\r\n        uint voteCount;\r\n    }\r\n   \r\n    enum WorkflowStatus {\r\n        RegisteringVoters,\r\n        ProposalsRegistrationStarted,\r\n        ProposalsRegistrationEnded,\r\n        VotingSessionStarted,\r\n        VotingSessionEnded,\r\n        VotesTallied\r\n    }\r\n\r\n    WorkflowStatus public wfStatus = WorkflowStatus.RegisteringVoters;\r\n    mapping (address => Voter) private comptesWL;\r\n    address[] public addressUsed;\r\n    Proposal[] public proposals;\r\n   \r\n    uint public winningProposalId;\r\n    uint public nbVote = 0;\r\n    uint public totalVoter = 0;    \r\n\r\n    event VoterRegistered(address voterAddress);\r\n    event WorkflowStatusChange(WorkflowStatus previousStatus, WorkflowStatus newStatus);\r\n    event ProposalRegistered(uint proposalId);\r\n    event Voted (address voter, uint proposalId);\r\n   \r\n    modifier atStage(WorkflowStatus _status) {\r\n        require(wfStatus == _status, \"Function cannot be called at this time.\");\r\n        _;\r\n    }\r\n\r\n    modifier senderRegistred(){\r\n        require(comptesWL[msg.sender].isRegistered, \"You're not registred.\");\r\n        _;\r\n    }\r\n\r\n    //constructor\r\n   \r\n    //fonctions\r\n    function nextStage() public onlyOwner {\r\n        //If we already are in Stage of VotesTallied, then it's a start over\r\n        WorkflowStatus newStatus = (wfStatus != WorkflowStatus.VotesTallied) ? WorkflowStatus(uint(wfStatus) + 1) : WorkflowStatus.RegisteringVoters;\r\n        emit WorkflowStatusChange(wfStatus,newStatus);\r\n        wfStatus = newStatus;\r\n    }\r\n\r\n    function getWhitelist() public view onlyOwner returns(address[] memory) {\r\n\t\treturn addressUsed;\r\n\t}\r\n\r\n    function getProposalsList() public view returns(Proposal[] memory){\r\n        return proposals;\r\n    }\r\n\r\n    /*\r\n    *\r\n    *   1) L'administrateur du vote enregistre une liste blanche d'lecteurs identifis par leur adresse Ethereum.\r\n    *\r\n    */\r\n    function registeringUniqueAd(address _address) public onlyOwner atStage(WorkflowStatus.RegisteringVoters){\r\n        require(!comptesWL[_address].isRegistered,\"Already registered in the whitelist my dear\");\r\n        //Cration d'un Voter via Structure & Mj Whitelist address => struct\r\n       \r\n        comptesWL[_address].isRegistered = true;\r\n        addressUsed.push(_address);\r\n\t\t\r\n       \r\n        totalVoter++;\r\n        //Event lecteur enregistr\r\n        emit VoterRegistered(_address);\r\n    }\r\n\r\n    /*\r\n    *\r\n    *   1) L'administrateur du vote enregistre une liste blanche d'lecteurs identifis par leur adresse Ethereum.\r\n    *\r\n    */\r\n    function registeringWL(address[] memory arrayWL) public onlyOwner atStage(WorkflowStatus.RegisteringVoters){\r\n        for(uint i=0;i<arrayWL.length;i++){\r\n            if(!comptesWL[arrayWL[i]].isRegistered){\r\n                comptesWL[arrayWL[i]] = Voter(true,false,0);\r\n                addressUsed.push(arrayWL[i]);\r\n                totalVoter++;\r\n                emit VoterRegistered(arrayWL[i]);\r\n            }\r\n        }\r\n    }\r\n\r\n    /*\r\n    *\r\n    * 2) L'administrateur du vote commence la session d'enregistrement de la proposition.\r\n    *\r\n    */\r\n    function startingProposalSession() public onlyOwner atStage(WorkflowStatus.RegisteringVoters){\r\n        require(totalVoter > 0,\"There is not enough address in the WL\");\r\n        //WL termine, on passe  l'tape d'aps\r\n        nextStage();\r\n    }\r\n\r\n    /*\r\n    *\r\n    *   3) Les lecteurs inscrits sont autoriss  enregistrer leurs propositions pendant que la session d'enregistrement est active.\r\n    *\r\n    */\r\n    function registeringProposal(string memory _description) public atStage(WorkflowStatus.ProposalsRegistrationStarted) senderRegistred{\r\n        proposals.push(Proposal(_description,0));\r\n        emit ProposalRegistered(proposals.length);\r\n    }\r\n\r\n    /*\r\n    *\r\n    *   4) L'administrateur de vote met fin  la session d'enregistrement des propositions.\r\n    *\r\n    */\r\n    function endingProposalSession() public onlyOwner atStage(WorkflowStatus.ProposalsRegistrationStarted){\r\n        //Proposal session over but... do we have at least one vote ?\r\n        require(proposals.length >= 1,\"Not enough proposition to start a vote\");\r\n        nextStage();\r\n    }\r\n\r\n    /*\r\n    *\r\n    *   5) L'administrateur du vote commence la session de vote.\r\n    *\r\n    */\r\n    function startVotingSession() public onlyOwner atStage(WorkflowStatus.ProposalsRegistrationEnded){\r\n        nextStage();\r\n    }\r\n\r\n    /*\r\n    *\r\n    *   6) Les lecteurs inscrits votent pour leurs propositions prfres.\r\n    *\r\n    */\r\n    function votingFor(uint _proposalId) public atStage(WorkflowStatus.VotingSessionStarted) senderRegistred{\r\n        //N'a pas dj vot\r\n        require(!comptesWL[msg.sender].hasVoted,\"You already voted\");        \r\n        //Vote pour une propal existante\r\n        require(proposals.length >= _proposalId,\"Proposal wished doesnt exist\");\r\n\r\n        //Mise  jour du \" voter\"\r\n        comptesWL[msg.sender].hasVoted = true;\r\n        comptesWL[msg.sender].votedProposalId = _proposalId;\r\n\r\n        //Mise  jour du count de vote pour la proposition vote\r\n        proposals[_proposalId].voteCount++;\r\n        //Le nb de vote total augmente\r\n        nbVote++;\r\n       \r\n        if(proposals[_proposalId].voteCount > proposals[winningProposalId].voteCount){\r\n            winningProposalId = _proposalId;\r\n        }\r\n\r\n        //emit\r\n        emit Voted(msg.sender,_proposalId);\r\n    }\r\n\r\n\r\n    /*\r\n    *\r\n    *   7) L'administrateur du vote met fin  la session de vote.\r\n    *\r\n    */\r\n    function endVotingSession() public onlyOwner atStage(WorkflowStatus.VotingSessionStarted){\r\n        require(nbVote > 0,\"We need at least one vote\");\r\n       \r\n        nextStage();\r\n    }\r\n\r\n\r\n    /*\r\n    *\r\n    *   8) L'administrateur du vote comptabilise les votes.\r\n    *\r\n    */\r\n    function countVote() public onlyOwner atStage(WorkflowStatus.VotingSessionEnded){\r\n        /*uint maxCount=0;\r\n        for(uint i = 0;i<proposals.length;i++){\r\n            if(proposals[i].voteCount > maxCount){\r\n                maxCount = proposals[i].voteCount;\r\n                winningProposalId = i;\r\n            }\r\n        }*/\r\n        nextStage();\r\n    }\r\n\r\n    /*\r\n    *\r\n    *   9) Tout le monde peut vrifier les derniers dtails de la proposition gagnante.\r\n    *\r\n    */\r\n    function getWinner() public view atStage(WorkflowStatus.VotesTallied) returns(uint, string memory, uint){\r\n        return (winningProposalId,proposals[winningProposalId].description,proposals[winningProposalId].voteCount);\r\n    }\r\n/*\r\n    function getWinnerATester() public view atStage(WorkflowStatus.VotesTallied) returns(uint, Proposal){\r\n        return (winningProposalId,proposals[winningProposalId]);\r\n    }\r\n*/\r\n    /*\r\n    *   10) Rinitialise l'app de vote\r\n    */\r\n    function reInitStatus() public onlyOwner atStage(WorkflowStatus.VotesTallied) {\r\n        nextStage();\r\n       \r\n        //Re init la liste des proposals, la liste des WL, la winningProposal, le totalVoter etc.)\r\n        //array of proposal\r\n        delete proposals;\r\n        //mapping whitelist\r\n        for(uint i = 0;i<addressUsed.length;i++){\r\n            comptesWL[addressUsed[i]] = Voter(false,false,0);\r\n        }\r\n        //uint winningProposalId\r\n        winningProposalId = 0;\r\n        //uint totalVoter\r\n        totalVoter = 0;\r\n    }\r\n\r\n}",
  "sourcePath": "D:\\Data\\Documents\\TruffleProjects\\Developpeur-Ethereum-Template\\6. Dapp\\Defi\\DefiDontUseFront\\contracts\\Voting.sol",
  "compiler": {
    "name": "solc",
    "version": "0.8.11+commit.d7f03943.Emscripten.clang"
  },
  "schemaVersion": "3.4.4",
  "updatedAt": "2022-02-25T10:37:30.270Z",
  "devdoc": {
    "kind": "dev",
    "methods": {
      "owner()": {
        "details": "Returns the address of the current owner."
      },
      "renounceOwnership()": {
        "details": "Leaves the contract without owner. It will not be possible to call `onlyOwner` functions anymore. Can only be called by the current owner. NOTE: Renouncing ownership will leave the contract without an owner, thereby removing any functionality that is only available to the owner."
      },
      "transferOwnership(address)": {
        "details": "Transfers ownership of the contract to a new account (`newOwner`). Can only be called by the current owner."
      }
    },
    "version": 1
  },
  "userdoc": {
    "kind": "user",
    "methods": {},
    "version": 1
  }
}