{
  "contractName": "Voting",
  "abi": [
    {
      "anonymous": false,
      "inputs": [
        {
          "indexed": true,
          "internalType": "address",
          "name": "previousOwner",
          "type": "address"
        },
        {
          "indexed": true,
          "internalType": "address",
          "name": "newOwner",
          "type": "address"
        }
      ],
      "name": "OwnershipTransferred",
      "type": "event"
    },
    {
      "anonymous": false,
      "inputs": [
        {
          "indexed": false,
          "internalType": "uint256",
          "name": "proposalId",
          "type": "uint256"
        }
      ],
      "name": "ProposalRegistered",
      "type": "event"
    },
    {
      "anonymous": false,
      "inputs": [
        {
          "indexed": false,
          "internalType": "address",
          "name": "voter",
          "type": "address"
        },
        {
          "indexed": false,
          "internalType": "uint256",
          "name": "proposalId",
          "type": "uint256"
        }
      ],
      "name": "Voted",
      "type": "event"
    },
    {
      "anonymous": false,
      "inputs": [
        {
          "indexed": false,
          "internalType": "address",
          "name": "voterAddress",
          "type": "address"
        }
      ],
      "name": "VoterRegistered",
      "type": "event"
    },
    {
      "anonymous": false,
      "inputs": [
        {
          "indexed": false,
          "internalType": "enum Voting.WorkflowStatus",
          "name": "previousStatus",
          "type": "uint8"
        },
        {
          "indexed": false,
          "internalType": "enum Voting.WorkflowStatus",
          "name": "newStatus",
          "type": "uint8"
        }
      ],
      "name": "WorkflowStatusChange",
      "type": "event"
    },
    {
      "inputs": [],
      "name": "nbVote",
      "outputs": [
        {
          "internalType": "uint256",
          "name": "",
          "type": "uint256"
        }
      ],
      "stateMutability": "view",
      "type": "function",
      "constant": true
    },
    {
      "inputs": [],
      "name": "owner",
      "outputs": [
        {
          "internalType": "address",
          "name": "",
          "type": "address"
        }
      ],
      "stateMutability": "view",
      "type": "function",
      "constant": true
    },
    {
      "inputs": [
        {
          "internalType": "uint256",
          "name": "",
          "type": "uint256"
        }
      ],
      "name": "proposals",
      "outputs": [
        {
          "internalType": "string",
          "name": "description",
          "type": "string"
        },
        {
          "internalType": "uint256",
          "name": "voteCount",
          "type": "uint256"
        }
      ],
      "stateMutability": "view",
      "type": "function",
      "constant": true
    },
    {
      "inputs": [],
      "name": "renounceOwnership",
      "outputs": [],
      "stateMutability": "nonpayable",
      "type": "function"
    },
    {
      "inputs": [],
      "name": "totalVoter",
      "outputs": [
        {
          "internalType": "uint256",
          "name": "",
          "type": "uint256"
        }
      ],
      "stateMutability": "view",
      "type": "function",
      "constant": true
    },
    {
      "inputs": [
        {
          "internalType": "address",
          "name": "newOwner",
          "type": "address"
        }
      ],
      "name": "transferOwnership",
      "outputs": [],
      "stateMutability": "nonpayable",
      "type": "function"
    },
    {
      "inputs": [],
      "name": "wfStatus",
      "outputs": [
        {
          "internalType": "enum Voting.WorkflowStatus",
          "name": "",
          "type": "uint8"
        }
      ],
      "stateMutability": "view",
      "type": "function",
      "constant": true
    },
    {
      "inputs": [],
      "name": "winningProposalId",
      "outputs": [
        {
          "internalType": "uint256",
          "name": "",
          "type": "uint256"
        }
      ],
      "stateMutability": "view",
      "type": "function",
      "constant": true
    },
    {
      "inputs": [],
      "name": "nextStage",
      "outputs": [],
      "stateMutability": "nonpayable",
      "type": "function"
    },
    {
      "inputs": [
        {
          "internalType": "address",
          "name": "_address",
          "type": "address"
        }
      ],
      "name": "registeringUniqueAd",
      "outputs": [],
      "stateMutability": "nonpayable",
      "type": "function"
    },
    {
      "inputs": [
        {
          "internalType": "address[]",
          "name": "arrayWL",
          "type": "address[]"
        }
      ],
      "name": "registeringWL",
      "outputs": [],
      "stateMutability": "nonpayable",
      "type": "function"
    },
    {
      "inputs": [],
      "name": "startingProposalSession",
      "outputs": [],
      "stateMutability": "nonpayable",
      "type": "function"
    },
    {
      "inputs": [
        {
          "internalType": "string",
          "name": "_description",
          "type": "string"
        }
      ],
      "name": "registeringProposal",
      "outputs": [],
      "stateMutability": "nonpayable",
      "type": "function"
    },
    {
      "inputs": [],
      "name": "endingProposalSession",
      "outputs": [],
      "stateMutability": "nonpayable",
      "type": "function"
    },
    {
      "inputs": [],
      "name": "startVotingSession",
      "outputs": [],
      "stateMutability": "nonpayable",
      "type": "function"
    },
    {
      "inputs": [
        {
          "internalType": "uint256",
          "name": "_proposalId",
          "type": "uint256"
        }
      ],
      "name": "votingFor",
      "outputs": [],
      "stateMutability": "nonpayable",
      "type": "function"
    },
    {
      "inputs": [],
      "name": "endVotingSession",
      "outputs": [],
      "stateMutability": "nonpayable",
      "type": "function"
    },
    {
      "inputs": [],
      "name": "countVote",
      "outputs": [],
      "stateMutability": "nonpayable",
      "type": "function"
    },
    {
      "inputs": [],
      "name": "getWinner",
      "outputs": [
        {
          "internalType": "uint256",
          "name": "",
          "type": "uint256"
        },
        {
          "internalType": "string",
          "name": "",
          "type": "string"
        },
        {
          "internalType": "uint256",
          "name": "",
          "type": "uint256"
        }
      ],
      "stateMutability": "view",
      "type": "function",
      "constant": true
    },
    {
      "inputs": [],
      "name": "reInitStatus",
      "outputs": [],
      "stateMutability": "nonpayable",
      "type": "function"
    }
  ],
  "bytecode": "0x608060405260008060146101000a81548160ff021916908360058111156200002c576200002b6200013b565b5b0217905550600060055560006006553480156200004857600080fd5b50620000696200005d6200006f60201b60201c565b6200007760201b60201c565b6200016a565b600033905090565b60008060009054906101000a900473ffffffffffffffffffffffffffffffffffffffff169050816000806101000a81548173ffffffffffffffffffffffffffffffffffffffff021916908373ffffffffffffffffffffffffffffffffffffffff1602179055508173ffffffffffffffffffffffffffffffffffffffff168173ffffffffffffffffffffffffffffffffffffffff167f8be0079c531659141344cd1fd0a4f28419497f9722a3daafe3b4186f6b6457e060405160405180910390a35050565b7f4e487b7100000000000000000000000000000000000000000000000000000000600052602160045260246000fd5b612990806200017a6000396000f3fe608060405234801561001057600080fd5b506004361061012c5760003560e01c80638e7ea5b2116100ad578063e817834811610071578063e81783481461028a578063ee3743ab146102a6578063ee74c678146102b0578063eea24be0146102ba578063f2fde38b146102d85761012c565b80638e7ea5b21461021c57806390b8a0d51461023c578063a3d22a5614610246578063a7bfab1614610262578063c64963c51461026c5761012c565b80634f621816116100f45780634f621816146101ae5780636332abc9146101b8578063715018a6146101d657806372f24fc1146101e05780638da5cb5b146101fe5761012c565b8063013cf08b1461013157806304cc2ed6146101625780631a6cd2fd1461016c57806326e3233d146101765780632736f7e814610192575b600080fd5b61014b60048036038101906101469190611d80565b6102f4565b604051610159929190611e55565b60405180910390f35b61016a6103b0565b005b6101746105dc565b005b610190600480360381019061018b9190611fba565b6106da565b005b6101ac60048036038101906101a79190612061565b61088a565b005b6101b6610b1d565b005b6101c0610c60565b6040516101cd919061208e565b60405180910390f35b6101de610c66565b005b6101e8610cee565b6040516101f5919061208e565b60405180910390f35b610206610cf4565b60405161021391906120b8565b60405180910390f35b610224610d1d565b604051610233939291906120d3565b60405180910390f35b610244610e84565b005b610260600480360381019061025b91906121d9565b610fcb565b005b61026a6112ff565b005b610274611442565b604051610281919061208e565b60405180910390f35b6102a4600480360381019061029f9190611d80565b611448565b005b6102ae6117b3565b005b6102b861192b565b005b6102c2611a29565b6040516102cf9190612299565b60405180910390f35b6102f260048036038101906102ed9190612061565b611a3c565b005b6003818154811061030457600080fd5b9060005260206000209060020201600091509050806000018054610327906122e3565b80601f0160208091040260200160405190810160405280929190818152602001828054610353906122e3565b80156103a05780601f10610375576101008083540402835291602001916103a0565b820191906000526020600020905b81548152906001019060200180831161038357829003601f168201915b5050505050908060010154905082565b6103b8611b34565b73ffffffffffffffffffffffffffffffffffffffff166103d6610cf4565b73ffffffffffffffffffffffffffffffffffffffff161461042c576040517f08c379a000000000000000000000000000000000000000000000000000000000815260040161042390612361565b60405180910390fd5b600580600581111561044157610440612222565b5b600060149054906101000a900460ff16600581111561046357610462612222565b5b146104a3576040517f08c379a000000000000000000000000000000000000000000000000000000000815260040161049a906123f3565b60405180910390fd5b6104ab6117b3565b600360006104b99190611c00565b60005b6002805490508110156105c85760405180606001604052806000151581526020016000151581526020016000815250600160006002848154811061050357610502612413565b5b9060005260206000200160009054906101000a900473ffffffffffffffffffffffffffffffffffffffff1673ffffffffffffffffffffffffffffffffffffffff1673ffffffffffffffffffffffffffffffffffffffff16815260200190815260200160002060008201518160000160006101000a81548160ff02191690831515021790555060208201518160000160016101000a81548160ff0219169083151502179055506040820151816001015590505080806105c090612471565b9150506104bc565b506000600481905550600060068190555050565b6105e4611b34565b73ffffffffffffffffffffffffffffffffffffffff16610602610cf4565b73ffffffffffffffffffffffffffffffffffffffff1614610658576040517f08c379a000000000000000000000000000000000000000000000000000000000815260040161064f90612361565b60405180910390fd5b600480600581111561066d5761066c612222565b5b600060149054906101000a900460ff16600581111561068f5761068e612222565b5b146106cf576040517f08c379a00000000000000000000000000000000000000000000000000000000081526004016106c6906123f3565b60405180910390fd5b6106d76117b3565b50565b60018060058111156106ef576106ee612222565b5b600060149054906101000a900460ff16600581111561071157610710612222565b5b14610751576040517f08c379a0000000000000000000000000000000000000000000000000000000008152600401610748906123f3565b60405180910390fd5b600160003373ffffffffffffffffffffffffffffffffffffffff1673ffffffffffffffffffffffffffffffffffffffff16815260200190815260200160002060000160009054906101000a900460ff166107e0576040517f08c379a00000000000000000000000000000000000000000000000000000000081526004016107d790612506565b60405180910390fd5b6003604051806040016040528084815260200160008152509080600181540180825580915050600190039060005260206000209060020201600090919091909150600082015181600001908051906020019061083d929190611c24565b506020820151816001015550507f92e393e9b54e2f801d3ea4beb0c5e71a21cc34a5d34b77d0fb8a3aa1650dc18f60038054905060405161087e919061208e565b60405180910390a15050565b610892611b34565b73ffffffffffffffffffffffffffffffffffffffff166108b0610cf4565b73ffffffffffffffffffffffffffffffffffffffff1614610906576040517f08c379a00000000000000000000000000000000000000000000000000000000081526004016108fd90612361565b60405180910390fd5b600080600581111561091b5761091a612222565b5b600060149054906101000a900460ff16600581111561093d5761093c612222565b5b1461097d576040517f08c379a0000000000000000000000000000000000000000000000000000000008152600401610974906123f3565b60405180910390fd5b600160008373ffffffffffffffffffffffffffffffffffffffff1673ffffffffffffffffffffffffffffffffffffffff16815260200190815260200160002060000160009054906101000a900460ff1615610a0d576040517f08c379a0000000000000000000000000000000000000000000000000000000008152600401610a0490612598565b60405180910390fd5b60018060008473ffffffffffffffffffffffffffffffffffffffff1673ffffffffffffffffffffffffffffffffffffffff16815260200190815260200160002060000160006101000a81548160ff0219169083151502179055506002829080600181540180825580915050600190039060005260206000200160009091909190916101000a81548173ffffffffffffffffffffffffffffffffffffffff021916908373ffffffffffffffffffffffffffffffffffffffff16021790555060066000815480929190610add90612471565b91905055507fb6be2187d059cc2a55fe29e0e503b566e1e0f8c8780096e185429350acffd3dd82604051610b1191906120b8565b60405180910390a15050565b610b25611b34565b73ffffffffffffffffffffffffffffffffffffffff16610b43610cf4565b73ffffffffffffffffffffffffffffffffffffffff1614610b99576040517f08c379a0000000000000000000000000000000000000000000000000000000008152600401610b9090612361565b60405180910390fd5b6000806005811115610bae57610bad612222565b5b600060149054906101000a900460ff166005811115610bd057610bcf612222565b5b14610c10576040517f08c379a0000000000000000000000000000000000000000000000000000000008152600401610c07906123f3565b60405180910390fd5b600060065411610c55576040517f08c379a0000000000000000000000000000000000000000000000000000000008152600401610c4c9061262a565b60405180910390fd5b610c5d6117b3565b50565b60065481565b610c6e611b34565b73ffffffffffffffffffffffffffffffffffffffff16610c8c610cf4565b73ffffffffffffffffffffffffffffffffffffffff1614610ce2576040517f08c379a0000000000000000000000000000000000000000000000000000000008152600401610cd990612361565b60405180910390fd5b610cec6000611b3c565b565b60055481565b60008060009054906101000a900473ffffffffffffffffffffffffffffffffffffffff16905090565b6000606060006005806005811115610d3857610d37612222565b5b600060149054906101000a900460ff166005811115610d5a57610d59612222565b5b14610d9a576040517f08c379a0000000000000000000000000000000000000000000000000000000008152600401610d91906123f3565b60405180910390fd5b600454600360045481548110610db357610db2612413565b5b9060005260206000209060020201600001600360045481548110610dda57610dd9612413565b5b906000526020600020906002020160010154818054610df8906122e3565b80601f0160208091040260200160405190810160405280929190818152602001828054610e24906122e3565b8015610e715780601f10610e4657610100808354040283529160200191610e71565b820191906000526020600020905b815481529060010190602001808311610e5457829003601f168201915b5050505050915093509350935050909192565b610e8c611b34565b73ffffffffffffffffffffffffffffffffffffffff16610eaa610cf4565b73ffffffffffffffffffffffffffffffffffffffff1614610f00576040517f08c379a0000000000000000000000000000000000000000000000000000000008152600401610ef790612361565b60405180910390fd5b6001806005811115610f1557610f14612222565b5b600060149054906101000a900460ff166005811115610f3757610f36612222565b5b14610f77576040517f08c379a0000000000000000000000000000000000000000000000000000000008152600401610f6e906123f3565b60405180910390fd5b60016003805490501015610fc0576040517f08c379a0000000000000000000000000000000000000000000000000000000008152600401610fb7906126bc565b60405180910390fd5b610fc86117b3565b50565b610fd3611b34565b73ffffffffffffffffffffffffffffffffffffffff16610ff1610cf4565b73ffffffffffffffffffffffffffffffffffffffff1614611047576040517f08c379a000000000000000000000000000000000000000000000000000000000815260040161103e90612361565b60405180910390fd5b600080600581111561105c5761105b612222565b5b600060149054906101000a900460ff16600581111561107e5761107d612222565b5b146110be576040517f08c379a00000000000000000000000000000000000000000000000000000000081526004016110b5906123f3565b60405180910390fd5b60005b82518110156112fa57600160008483815181106110e1576110e0612413565b5b602002602001015173ffffffffffffffffffffffffffffffffffffffff1673ffffffffffffffffffffffffffffffffffffffff16815260200190815260200160002060000160009054906101000a900460ff166112e757604051806060016040528060011515815260200160001515815260200160008152506001600085848151811061117157611170612413565b5b602002602001015173ffffffffffffffffffffffffffffffffffffffff1673ffffffffffffffffffffffffffffffffffffffff16815260200190815260200160002060008201518160000160006101000a81548160ff02191690831515021790555060208201518160000160016101000a81548160ff02191690831515021790555060408201518160010155905050600283828151811061121557611214612413565b5b60200260200101519080600181540180825580915050600190039060005260206000200160009091909190916101000a81548173ffffffffffffffffffffffffffffffffffffffff021916908373ffffffffffffffffffffffffffffffffffffffff1602179055506006600081548092919061129090612471565b91905055507fb6be2187d059cc2a55fe29e0e503b566e1e0f8c8780096e185429350acffd3dd8382815181106112c9576112c8612413565b5b60200260200101516040516112de91906120b8565b60405180910390a15b80806112f290612471565b9150506110c1565b505050565b611307611b34565b73ffffffffffffffffffffffffffffffffffffffff16611325610cf4565b73ffffffffffffffffffffffffffffffffffffffff161461137b576040517f08c379a000000000000000000000000000000000000000000000000000000000815260040161137290612361565b60405180910390fd5b60038060058111156113905761138f612222565b5b600060149054906101000a900460ff1660058111156113b2576113b1612222565b5b146113f2576040517f08c379a00000000000000000000000000000000000000000000000000000000081526004016113e9906123f3565b60405180910390fd5b600060055411611437576040517f08c379a000000000000000000000000000000000000000000000000000000000815260040161142e90612728565b60405180910390fd5b61143f6117b3565b50565b60045481565b600380600581111561145d5761145c612222565b5b600060149054906101000a900460ff16600581111561147f5761147e612222565b5b146114bf576040517f08c379a00000000000000000000000000000000000000000000000000000000081526004016114b6906123f3565b60405180910390fd5b600160003373ffffffffffffffffffffffffffffffffffffffff1673ffffffffffffffffffffffffffffffffffffffff16815260200190815260200160002060000160009054906101000a900460ff1661154e576040517f08c379a000000000000000000000000000000000000000000000000000000000815260040161154590612506565b60405180910390fd5b600160003373ffffffffffffffffffffffffffffffffffffffff1673ffffffffffffffffffffffffffffffffffffffff16815260200190815260200160002060000160019054906101000a900460ff16156115de576040517f08c379a00000000000000000000000000000000000000000000000000000000081526004016115d590612794565b60405180910390fd5b816003805490501015611626576040517f08c379a000000000000000000000000000000000000000000000000000000000815260040161161d90612800565b60405180910390fd5b60018060003373ffffffffffffffffffffffffffffffffffffffff1673ffffffffffffffffffffffffffffffffffffffff16815260200190815260200160002060000160016101000a81548160ff02191690831515021790555081600160003373ffffffffffffffffffffffffffffffffffffffff1673ffffffffffffffffffffffffffffffffffffffff16815260200190815260200160002060010181905550600382815481106116db576116da612413565b5b906000526020600020906002020160010160008154809291906116fd90612471565b91905055506005600081548092919061171590612471565b91905055506003600454815481106117305761172f612413565b5b9060005260206000209060020201600101546003838154811061175657611755612413565b5b906000526020600020906002020160010154111561177657816004819055505b7f4d99b957a2bc29a30ebd96a7be8e68fe50a3c701db28a91436490b7d53870ca433836040516117a7929190612820565b60405180910390a15050565b6117bb611b34565b73ffffffffffffffffffffffffffffffffffffffff166117d9610cf4565b73ffffffffffffffffffffffffffffffffffffffff161461182f576040517f08c379a000000000000000000000000000000000000000000000000000000000815260040161182690612361565b60405180910390fd5b600060058081111561184457611843612222565b5b600060149054906101000a900460ff16600581111561186657611865612222565b5b14156118735760006118b4565b6001600060149054906101000a900460ff16600581111561189757611896612222565b5b6118a19190612849565b60058111156118b3576118b2612222565b5b5b90507f0a97a4ee45751e2abf3e4fc8946939630b11b371ea8ae39ccdc3056e98f5cc3f600060149054906101000a900460ff16826040516118f692919061289f565b60405180910390a180600060146101000a81548160ff0219169083600581111561192357611922612222565b5b021790555050565b611933611b34565b73ffffffffffffffffffffffffffffffffffffffff16611951610cf4565b73ffffffffffffffffffffffffffffffffffffffff16146119a7576040517f08c379a000000000000000000000000000000000000000000000000000000000815260040161199e90612361565b60405180910390fd5b60028060058111156119bc576119bb612222565b5b600060149054906101000a900460ff1660058111156119de576119dd612222565b5b14611a1e576040517f08c379a0000000000000000000000000000000000000000000000000000000008152600401611a15906123f3565b60405180910390fd5b611a266117b3565b50565b600060149054906101000a900460ff1681565b611a44611b34565b73ffffffffffffffffffffffffffffffffffffffff16611a62610cf4565b73ffffffffffffffffffffffffffffffffffffffff1614611ab8576040517f08c379a0000000000000000000000000000000000000000000000000000000008152600401611aaf90612361565b60405180910390fd5b600073ffffffffffffffffffffffffffffffffffffffff168173ffffffffffffffffffffffffffffffffffffffff161415611b28576040517f08c379a0000000000000000000000000000000000000000000000000000000008152600401611b1f9061293a565b60405180910390fd5b611b3181611b3c565b50565b600033905090565b60008060009054906101000a900473ffffffffffffffffffffffffffffffffffffffff169050816000806101000a81548173ffffffffffffffffffffffffffffffffffffffff021916908373ffffffffffffffffffffffffffffffffffffffff1602179055508173ffffffffffffffffffffffffffffffffffffffff168173ffffffffffffffffffffffffffffffffffffffff167f8be0079c531659141344cd1fd0a4f28419497f9722a3daafe3b4186f6b6457e060405160405180910390a35050565b5080546000825560020290600052602060002090810190611c219190611caa565b50565b828054611c30906122e3565b90600052602060002090601f016020900481019282611c525760008555611c99565b82601f10611c6b57805160ff1916838001178555611c99565b82800160010185558215611c99579182015b82811115611c98578251825591602001919060010190611c7d565b5b509050611ca69190611cd9565b5090565b5b80821115611cd55760008082016000611cc49190611cf6565b600182016000905550600201611cab565b5090565b5b80821115611cf2576000816000905550600101611cda565b5090565b508054611d02906122e3565b6000825580601f10611d145750611d33565b601f016020900490600052602060002090810190611d329190611cd9565b5b50565b6000604051905090565b600080fd5b600080fd5b6000819050919050565b611d5d81611d4a565b8114611d6857600080fd5b50565b600081359050611d7a81611d54565b92915050565b600060208284031215611d9657611d95611d40565b5b6000611da484828501611d6b565b91505092915050565b600081519050919050565b600082825260208201905092915050565b60005b83811015611de7578082015181840152602081019050611dcc565b83811115611df6576000848401525b50505050565b6000601f19601f8301169050919050565b6000611e1882611dad565b611e228185611db8565b9350611e32818560208601611dc9565b611e3b81611dfc565b840191505092915050565b611e4f81611d4a565b82525050565b60006040820190508181036000830152611e6f8185611e0d565b9050611e7e6020830184611e46565b9392505050565b600080fd5b600080fd5b7f4e487b7100000000000000000000000000000000000000000000000000000000600052604160045260246000fd5b611ec782611dfc565b810181811067ffffffffffffffff82111715611ee657611ee5611e8f565b5b80604052505050565b6000611ef9611d36565b9050611f058282611ebe565b919050565b600067ffffffffffffffff821115611f2557611f24611e8f565b5b611f2e82611dfc565b9050602081019050919050565b82818337600083830152505050565b6000611f5d611f5884611f0a565b611eef565b905082815260208101848484011115611f7957611f78611e8a565b5b611f84848285611f3b565b509392505050565b600082601f830112611fa157611fa0611e85565b5b8135611fb1848260208601611f4a565b91505092915050565b600060208284031215611fd057611fcf611d40565b5b600082013567ffffffffffffffff811115611fee57611fed611d45565b5b611ffa84828501611f8c565b91505092915050565b600073ffffffffffffffffffffffffffffffffffffffff82169050919050565b600061202e82612003565b9050919050565b61203e81612023565b811461204957600080fd5b50565b60008135905061205b81612035565b92915050565b60006020828403121561207757612076611d40565b5b60006120858482850161204c565b91505092915050565b60006020820190506120a36000830184611e46565b92915050565b6120b281612023565b82525050565b60006020820190506120cd60008301846120a9565b92915050565b60006060820190506120e86000830186611e46565b81810360208301526120fa8185611e0d565b90506121096040830184611e46565b949350505050565b600067ffffffffffffffff82111561212c5761212b611e8f565b5b602082029050602081019050919050565b600080fd5b600061215561215084612111565b611eef565b905080838252602082019050602084028301858111156121785761217761213d565b5b835b818110156121a1578061218d888261204c565b84526020840193505060208101905061217a565b5050509392505050565b600082601f8301126121c0576121bf611e85565b5b81356121d0848260208601612142565b91505092915050565b6000602082840312156121ef576121ee611d40565b5b600082013567ffffffffffffffff81111561220d5761220c611d45565b5b612219848285016121ab565b91505092915050565b7f4e487b7100000000000000000000000000000000000000000000000000000000600052602160045260246000fd5b6006811061226257612261612222565b5b50565b600081905061227382612251565b919050565b600061228382612265565b9050919050565b61229381612278565b82525050565b60006020820190506122ae600083018461228a565b92915050565b7f4e487b7100000000000000000000000000000000000000000000000000000000600052602260045260246000fd5b600060028204905060018216806122fb57607f821691505b6020821081141561230f5761230e6122b4565b5b50919050565b7f4f776e61626c653a2063616c6c6572206973206e6f7420746865206f776e6572600082015250565b600061234b602083611db8565b915061235682612315565b602082019050919050565b6000602082019050818103600083015261237a8161233e565b9050919050565b7f46756e6374696f6e2063616e6e6f742062652063616c6c65642061742074686960008201527f732074696d652e00000000000000000000000000000000000000000000000000602082015250565b60006123dd602783611db8565b91506123e882612381565b604082019050919050565b6000602082019050818103600083015261240c816123d0565b9050919050565b7f4e487b7100000000000000000000000000000000000000000000000000000000600052603260045260246000fd5b7f4e487b7100000000000000000000000000000000000000000000000000000000600052601160045260246000fd5b600061247c82611d4a565b91507fffffffffffffffffffffffffffffffffffffffffffffffffffffffffffffffff8214156124af576124ae612442565b5b600182019050919050565b7f596f75277265206e6f74207265676973747265642e0000000000000000000000600082015250565b60006124f0601583611db8565b91506124fb826124ba565b602082019050919050565b6000602082019050818103600083015261251f816124e3565b9050919050565b7f416c7265616479207265676973746572656420696e207468652077686974656c60008201527f697374206d792064656172000000000000000000000000000000000000000000602082015250565b6000612582602b83611db8565b915061258d82612526565b604082019050919050565b600060208201905081810360008301526125b181612575565b9050919050565b7f5468657265206973206e6f7420656e6f756768206164647265737320696e207460008201527f686520574c000000000000000000000000000000000000000000000000000000602082015250565b6000612614602583611db8565b915061261f826125b8565b604082019050919050565b6000602082019050818103600083015261264381612607565b9050919050565b7f4e6f7420656e6f7567682070726f706f736974696f6e20746f2073746172742060008201527f6120766f74650000000000000000000000000000000000000000000000000000602082015250565b60006126a6602683611db8565b91506126b18261264a565b604082019050919050565b600060208201905081810360008301526126d581612699565b9050919050565b7f5765206e656564206174206c65617374206f6e6520766f746500000000000000600082015250565b6000612712601983611db8565b915061271d826126dc565b602082019050919050565b6000602082019050818103600083015261274181612705565b9050919050565b7f596f7520616c726561647920766f746564000000000000000000000000000000600082015250565b600061277e601183611db8565b915061278982612748565b602082019050919050565b600060208201905081810360008301526127ad81612771565b9050919050565b7f50726f706f73616c2077697368656420646f65736e7420657869737400000000600082015250565b60006127ea601c83611db8565b91506127f5826127b4565b602082019050919050565b60006020820190508181036000830152612819816127dd565b9050919050565b600060408201905061283560008301856120a9565b6128426020830184611e46565b9392505050565b600061285482611d4a565b915061285f83611d4a565b9250827fffffffffffffffffffffffffffffffffffffffffffffffffffffffffffffffff0382111561289457612893612442565b5b828201905092915050565b60006040820190506128b4600083018561228a565b6128c1602083018461228a565b9392505050565b7f4f776e61626c653a206e6577206f776e657220697320746865207a65726f206160008201527f6464726573730000000000000000000000000000000000000000000000000000602082015250565b6000612924602683611db8565b915061292f826128c8565b604082019050919050565b6000602082019050818103600083015261295381612917565b905091905056fea2646970667358221220fe37b0a2f8373c27a28703f70e1c5442f4467e4480855f811b77515b9396cf9f64736f6c634300080a0033",
  "immutableReferences": {},
  "source": "// SPDX-License-Identifier: MIT\r\npragma solidity 0.8.10;\r\n\r\n//import \"https://github.com/OpenZeppelin/openzeppelin-contracts/blob/master/contracts/access/Ownable.sol\";\r\nimport \"@openzeppelin/contracts/access/Ownable.sol\";\r\n\r\n/*\r\n    @admin : dploye le contrat\r\n    1) L'administrateur du vote enregistre une liste blanche d'lecteurs identifis par leur adresse Ethereum.\r\n    2) L'administrateur du vote commence la session d'enregistrement de la proposition.\r\n    3) Les lecteurs inscrits sont autoriss  enregistrer leurs propositions pendant que la session d'enregistrement est active.\r\n    4) L'administrateur de vote met fin  la session d'enregistrement des propositions.\r\n    5) L'administrateur du vote commence la session de vote.\r\n    6) Les lecteurs inscrits votent pour leurs propositions prfres.\r\n    7) L'administrateur du vote met fin  la session de vote.\r\n    8) L'administrateur du vote comptabilise les votes.\r\n    9) Tout le monde peut vrifier les derniers dtails de la proposition gagnante.\r\n*/\r\n\r\n/*\r\n\t@TODO : \r\n\t- Ajouter SafeMath\r\n\t- Adress zero\r\n*/\r\n\r\n\r\ncontract Voting is Ownable{\r\n    struct Voter {\r\n        bool isRegistered;\r\n        bool hasVoted;\r\n        uint votedProposalId;\r\n    }\r\n\r\n    struct Proposal {\r\n        string description;\r\n        uint voteCount;\r\n    }\r\n   \r\n    enum WorkflowStatus {\r\n        RegisteringVoters,\r\n        ProposalsRegistrationStarted,\r\n        ProposalsRegistrationEnded,\r\n        VotingSessionStarted,\r\n        VotingSessionEnded,\r\n        VotesTallied\r\n    }\r\n\r\n    WorkflowStatus public wfStatus = WorkflowStatus.RegisteringVoters;\r\n    mapping (address => Voter) private comptesWL;\r\n    address[] private addressUsed;\r\n    Proposal[] public proposals;\r\n   \r\n    uint public winningProposalId;\r\n    uint public nbVote = 0;\r\n    uint public totalVoter = 0;    \r\n\r\n    event VoterRegistered(address voterAddress);\r\n    event WorkflowStatusChange(WorkflowStatus previousStatus, WorkflowStatus newStatus);\r\n    event ProposalRegistered(uint proposalId);\r\n    event Voted (address voter, uint proposalId);\r\n   \r\n    modifier atStage(WorkflowStatus _status) {\r\n        require(wfStatus == _status, \"Function cannot be called at this time.\");\r\n        _;\r\n    }\r\n\r\n    modifier senderRegistred(){\r\n        require(comptesWL[msg.sender].isRegistered, \"You're not registred.\");\r\n        _;\r\n    }\r\n\r\n    //constructor\r\n   \r\n    //fonctions\r\n    function nextStage() public onlyOwner {\r\n        //If we already are in Stage of VotesTallied, then it's a start over\r\n        WorkflowStatus newStatus = (wfStatus != WorkflowStatus.VotesTallied) ? WorkflowStatus(uint(wfStatus) + 1) : WorkflowStatus.RegisteringVoters;\r\n        emit WorkflowStatusChange(wfStatus,newStatus);\r\n        wfStatus = newStatus;\r\n    }\r\n\r\n    /*\r\n    *\r\n    *   1) L'administrateur du vote enregistre une liste blanche d'lecteurs identifis par leur adresse Ethereum.\r\n    *\r\n    */\r\n    function registeringUniqueAd(address _address) public onlyOwner atStage(WorkflowStatus.RegisteringVoters){\r\n        require(!comptesWL[_address].isRegistered,\"Already registered in the whitelist my dear\");\r\n        //Cration d'un Voter via Structure & Mj Whitelist address => struct\r\n       \r\n        comptesWL[_address].isRegistered = true;\r\n        addressUsed.push(_address);\r\n       \r\n        totalVoter++;\r\n        //Event lecteur enregistr\r\n        emit VoterRegistered(_address);\r\n    }\r\n\r\n    /*\r\n    *\r\n    *   1) L'administrateur du vote enregistre une liste blanche d'lecteurs identifis par leur adresse Ethereum.\r\n    *\r\n    */\r\n    function registeringWL(address[] memory arrayWL) public onlyOwner atStage(WorkflowStatus.RegisteringVoters){\r\n        for(uint i=0;i<arrayWL.length;i++){\r\n            if(!comptesWL[arrayWL[i]].isRegistered){\r\n                comptesWL[arrayWL[i]] = Voter(true,false,0);\r\n                addressUsed.push(arrayWL[i]);\r\n                totalVoter++;\r\n                emit VoterRegistered(arrayWL[i]);\r\n            }\r\n        }\r\n    }\r\n\r\n    /*\r\n    *\r\n    * 2) L'administrateur du vote commence la session d'enregistrement de la proposition.\r\n    *\r\n    */\r\n    function startingProposalSession() public onlyOwner atStage(WorkflowStatus.RegisteringVoters){\r\n        require(totalVoter > 0,\"There is not enough address in the WL\");\r\n        //WL termine, on passe  l'tape d'aps\r\n        nextStage();\r\n    }\r\n\r\n    /*\r\n    *\r\n    *   3) Les lecteurs inscrits sont autoriss  enregistrer leurs propositions pendant que la session d'enregistrement est active.\r\n    *\r\n    */\r\n    function registeringProposal(string memory _description) public atStage(WorkflowStatus.ProposalsRegistrationStarted) senderRegistred{\r\n        proposals.push(Proposal(_description,0));\r\n        emit ProposalRegistered(proposals.length);\r\n    }\r\n\r\n    /*\r\n    *\r\n    *   4) L'administrateur de vote met fin  la session d'enregistrement des propositions.\r\n    *\r\n    */\r\n    function endingProposalSession() public onlyOwner atStage(WorkflowStatus.ProposalsRegistrationStarted){\r\n        //Proposal session over but... do we have at least one vote ?\r\n        require(proposals.length >= 1,\"Not enough proposition to start a vote\");\r\n        nextStage();\r\n    }\r\n\r\n    /*\r\n    *\r\n    *   5) L'administrateur du vote commence la session de vote.\r\n    *\r\n    */\r\n    function startVotingSession() public onlyOwner atStage(WorkflowStatus.ProposalsRegistrationEnded){\r\n        nextStage();\r\n    }\r\n\r\n    /*\r\n    *\r\n    *   6) Les lecteurs inscrits votent pour leurs propositions prfres.\r\n    *\r\n    */\r\n    function votingFor(uint _proposalId) public atStage(WorkflowStatus.VotingSessionStarted) senderRegistred{\r\n        //N'a pas dj vot\r\n        require(!comptesWL[msg.sender].hasVoted,\"You already voted\");        \r\n        //Vote pour une propal existante\r\n        require(proposals.length >= _proposalId,\"Proposal wished doesnt exist\");\r\n\r\n        //Mise  jour du \" voter\"\r\n        comptesWL[msg.sender].hasVoted = true;\r\n        comptesWL[msg.sender].votedProposalId = _proposalId;\r\n\r\n        //Mise  jour du count de vote pour la proposition vote\r\n        proposals[_proposalId].voteCount++;\r\n        //Le nb de vote total augmente\r\n        nbVote++;\r\n       \r\n        if(proposals[_proposalId].voteCount > proposals[winningProposalId].voteCount){\r\n            winningProposalId = _proposalId;\r\n        }\r\n\r\n        //emit\r\n        emit Voted(msg.sender,_proposalId);\r\n    }\r\n\r\n\r\n    /*\r\n    *\r\n    *   7) L'administrateur du vote met fin  la session de vote.\r\n    *\r\n    */\r\n    function endVotingSession() public onlyOwner atStage(WorkflowStatus.VotingSessionStarted){\r\n        require(nbVote > 0,\"We need at least one vote\");\r\n       \r\n        nextStage();\r\n    }\r\n\r\n\r\n    /*\r\n    *\r\n    *   8) L'administrateur du vote comptabilise les votes.\r\n    *\r\n    */\r\n    function countVote() public onlyOwner atStage(WorkflowStatus.VotingSessionEnded){\r\n        /*uint maxCount=0;\r\n        for(uint i = 0;i<proposals.length;i++){\r\n            if(proposals[i].voteCount > maxCount){\r\n                maxCount = proposals[i].voteCount;\r\n                winningProposalId = i;\r\n            }\r\n        }*/\r\n        nextStage();\r\n    }\r\n\r\n    /*\r\n    *\r\n    *   9) Tout le monde peut vrifier les derniers dtails de la proposition gagnante.\r\n    *\r\n    */\r\n    function getWinner() public view atStage(WorkflowStatus.VotesTallied) returns(uint, string memory, uint){\r\n        return (winningProposalId,proposals[winningProposalId].description,proposals[winningProposalId].voteCount);\r\n    }\r\n/*\r\n    function getWinnerATester() public view atStage(WorkflowStatus.VotesTallied) returns(uint, Proposal){\r\n        return (winningProposalId,proposals[winningProposalId]);\r\n    }\r\n*/\r\n    /*\r\n    *   10) Rinitialise l'app de vote\r\n    */\r\n    function reInitStatus() public onlyOwner atStage(WorkflowStatus.VotesTallied) {\r\n        nextStage();\r\n       \r\n        //Re init la liste des proposals, la liste des WL, la winningProposal, le totalVoter etc.)\r\n        //array of proposal\r\n        delete proposals;\r\n        //mapping whitelist\r\n        for(uint i = 0;i<addressUsed.length;i++){\r\n            comptesWL[addressUsed[i]] = Voter(false,false,0);\r\n        }\r\n        //uint winningProposalId\r\n        winningProposalId = 0;\r\n        //uint totalVoter\r\n        totalVoter = 0;\r\n    }\r\n\r\n}",
  "sourcePath": "D:\\Data\\Documents\\TruffleProjects\\Developpeur-Ethereum-Template\\6. Dapp\\Defi\\contracts\\Voting.sol",
  "compiler": {
    "name": "solc",
    "version": "0.8.10+commit.fc410830.Emscripten.clang"
  },
  "schemaVersion": "3.4.4",
  "updatedAt": "2022-01-31T00:03:55.966Z",
  "networkType": "ethereum",
  "devdoc": {
    "kind": "dev",
    "methods": {
      "owner()": {
        "details": "Returns the address of the current owner."
      },
      "renounceOwnership()": {
        "details": "Leaves the contract without owner. It will not be possible to call `onlyOwner` functions anymore. Can only be called by the current owner. NOTE: Renouncing ownership will leave the contract without an owner, thereby removing any functionality that is only available to the owner."
      },
      "transferOwnership(address)": {
        "details": "Transfers ownership of the contract to a new account (`newOwner`). Can only be called by the current owner."
      }
    },
    "version": 1
  },
  "userdoc": {
    "kind": "user",
    "methods": {},
    "version": 1
  }
}